{
  "_format": "hh-sol-artifact-1",
  "contractName": "SALVARE",
  "sourceName": "contracts/SALVARE.sol",
  "abi": [
    {
      "inputs": [],
      "stateMutability": "nonpayable",
      "type": "constructor"
    },
    {
      "anonymous": false,
      "inputs": [
        {
          "indexed": true,
          "internalType": "address",
          "name": "owner",
          "type": "address"
        },
        {
          "indexed": true,
          "internalType": "address",
          "name": "spender",
          "type": "address"
        },
        {
          "indexed": false,
          "internalType": "uint256",
          "name": "value",
          "type": "uint256"
        }
      ],
      "name": "Approval",
      "type": "event"
    },
    {
      "anonymous": false,
      "inputs": [
        {
          "indexed": true,
          "internalType": "address",
          "name": "worker",
          "type": "address"
        },
        {
          "indexed": false,
          "internalType": "uint256",
          "name": "balance",
          "type": "uint256"
        }
      ],
      "name": "Balance",
      "type": "event"
    },
    {
      "anonymous": false,
      "inputs": [
        {
          "indexed": true,
          "internalType": "address",
          "name": "worker",
          "type": "address"
        },
        {
          "indexed": true,
          "internalType": "uint256",
          "name": "id",
          "type": "uint256"
        }
      ],
      "name": "DoneWork",
      "type": "event"
    },
    {
      "anonymous": false,
      "inputs": [
        {
          "indexed": true,
          "internalType": "address",
          "name": "worker",
          "type": "address"
        },
        {
          "indexed": true,
          "internalType": "uint256",
          "name": "id",
          "type": "uint256"
        }
      ],
      "name": "StartWork",
      "type": "event"
    },
    {
      "anonymous": false,
      "inputs": [
        {
          "indexed": true,
          "internalType": "address",
          "name": "from",
          "type": "address"
        },
        {
          "indexed": true,
          "internalType": "address",
          "name": "to",
          "type": "address"
        },
        {
          "indexed": false,
          "internalType": "uint256",
          "name": "value",
          "type": "uint256"
        }
      ],
      "name": "Transfer",
      "type": "event"
    },
    {
      "inputs": [
        {
          "internalType": "address",
          "name": "owner",
          "type": "address"
        },
        {
          "internalType": "address",
          "name": "spender",
          "type": "address"
        }
      ],
      "name": "allowance",
      "outputs": [
        {
          "internalType": "uint256",
          "name": "",
          "type": "uint256"
        }
      ],
      "stateMutability": "view",
      "type": "function"
    },
    {
      "inputs": [
        {
          "internalType": "address",
          "name": "spender",
          "type": "address"
        },
        {
          "internalType": "uint256",
          "name": "amount",
          "type": "uint256"
        }
      ],
      "name": "approve",
      "outputs": [
        {
          "internalType": "bool",
          "name": "",
          "type": "bool"
        }
      ],
      "stateMutability": "nonpayable",
      "type": "function"
    },
    {
      "inputs": [
        {
          "internalType": "address",
          "name": "account",
          "type": "address"
        }
      ],
      "name": "balanceOf",
      "outputs": [
        {
          "internalType": "uint256",
          "name": "",
          "type": "uint256"
        }
      ],
      "stateMutability": "view",
      "type": "function"
    },
    {
      "inputs": [],
      "name": "decimals",
      "outputs": [
        {
          "internalType": "uint8",
          "name": "",
          "type": "uint8"
        }
      ],
      "stateMutability": "view",
      "type": "function"
    },
    {
      "inputs": [
        {
          "internalType": "address",
          "name": "spender",
          "type": "address"
        },
        {
          "internalType": "uint256",
          "name": "subtractedValue",
          "type": "uint256"
        }
      ],
      "name": "decreaseAllowance",
      "outputs": [
        {
          "internalType": "bool",
          "name": "",
          "type": "bool"
        }
      ],
      "stateMutability": "nonpayable",
      "type": "function"
    },
    {
      "inputs": [
        {
          "internalType": "uint256",
          "name": "actualWeight",
          "type": "uint256"
        },
        {
          "internalType": "bytes32",
          "name": "messageHash",
          "type": "bytes32"
        },
        {
          "internalType": "bytes",
          "name": "signature",
          "type": "bytes"
        }
      ],
      "name": "doneWork",
      "outputs": [],
      "stateMutability": "nonpayable",
      "type": "function"
    },
    {
      "inputs": [],
      "name": "getTrashCans",
      "outputs": [
        {
          "components": [
            {
              "internalType": "uint256",
              "name": "id",
              "type": "uint256"
            },
            {
              "internalType": "address",
              "name": "trashCanOwner",
              "type": "address"
            },
            {
              "internalType": "address",
              "name": "trashCan",
              "type": "address"
            },
            {
              "internalType": "string",
              "name": "trashCanLocationAddress",
              "type": "string"
            },
            {
              "internalType": "string",
              "name": "trashCanLocationImage",
              "type": "string"
            },
            {
              "internalType": "uint256",
              "name": "trashCanLatitude",
              "type": "uint256"
            },
            {
              "internalType": "uint256",
              "name": "trashCanLongitude",
              "type": "uint256"
            },
            {
              "internalType": "uint256",
              "name": "trashCanAmount",
              "type": "uint256"
            },
            {
              "internalType": "uint256",
              "name": "trashCanMaxAmount",
              "type": "uint256"
            },
            {
              "internalType": "uint256",
              "name": "trashCanReward",
              "type": "uint256"
            },
            {
              "components": [
                {
                  "internalType": "uint256",
                  "name": "id",
                  "type": "uint256"
                },
                {
                  "internalType": "string",
                  "name": "recyclingCenterName",
                  "type": "string"
                },
                {
                  "internalType": "string",
                  "name": "recyclingCenterLocationAddress",
                  "type": "string"
                },
                {
                  "internalType": "uint256",
                  "name": "recyclingCenterLatitude",
                  "type": "uint256"
                },
                {
                  "internalType": "uint256",
                  "name": "recyclingCenterLongitude",
                  "type": "uint256"
                }
              ],
              "internalType": "struct SALVARE.RecyclingCenter",
              "name": "recyclingCenter",
              "type": "tuple"
            }
          ],
          "internalType": "struct SALVARE.TrashCan[]",
          "name": "",
          "type": "tuple[]"
        }
      ],
      "stateMutability": "view",
      "type": "function"
    },
    {
      "inputs": [
        {
          "internalType": "address",
          "name": "target",
          "type": "address"
        }
      ],
      "name": "getWork",
      "outputs": [
        {
          "components": [
            {
              "internalType": "uint256",
              "name": "id",
              "type": "uint256"
            },
            {
              "internalType": "uint256",
              "name": "gram",
              "type": "uint256"
            }
          ],
          "internalType": "struct SALVARE.Work",
          "name": "",
          "type": "tuple"
        }
      ],
      "stateMutability": "view",
      "type": "function"
    },
    {
      "inputs": [
        {
          "internalType": "address",
          "name": "spender",
          "type": "address"
        },
        {
          "internalType": "uint256",
          "name": "addedValue",
          "type": "uint256"
        }
      ],
      "name": "increaseAllowance",
      "outputs": [
        {
          "internalType": "bool",
          "name": "",
          "type": "bool"
        }
      ],
      "stateMutability": "nonpayable",
      "type": "function"
    },
    {
      "inputs": [
        {
          "internalType": "address",
          "name": "worker",
          "type": "address"
        }
      ],
      "name": "isWorking",
      "outputs": [
        {
          "components": [
            {
              "internalType": "uint256",
              "name": "id",
              "type": "uint256"
            },
            {
              "internalType": "uint256",
              "name": "gram",
              "type": "uint256"
            }
          ],
          "internalType": "struct SALVARE.Work",
          "name": "",
          "type": "tuple"
        }
      ],
      "stateMutability": "view",
      "type": "function"
    },
    {
      "inputs": [],
      "name": "name",
      "outputs": [
        {
          "internalType": "string",
          "name": "",
          "type": "string"
        }
      ],
      "stateMutability": "view",
      "type": "function"
    },
    {
      "inputs": [
        {
          "internalType": "uint256",
          "name": "_newAmount",
          "type": "uint256"
        },
        {
          "internalType": "uint256",
          "name": "id",
          "type": "uint256"
        }
      ],
      "name": "setAmountOfTrash",
      "outputs": [],
      "stateMutability": "nonpayable",
      "type": "function"
    },
    {
      "inputs": [
        {
          "internalType": "uint256",
          "name": "trashWeight",
          "type": "uint256"
        },
        {
          "internalType": "bytes32",
          "name": "messageHash",
          "type": "bytes32"
        },
        {
          "internalType": "bytes",
          "name": "signature",
          "type": "bytes"
        },
        {
          "internalType": "uint256",
          "name": "id",
          "type": "uint256"
        }
      ],
      "name": "startWork",
      "outputs": [],
      "stateMutability": "nonpayable",
      "type": "function"
    },
    {
      "inputs": [],
      "name": "symbol",
      "outputs": [
        {
          "internalType": "string",
          "name": "",
          "type": "string"
        }
      ],
      "stateMutability": "view",
      "type": "function"
    },
    {
      "inputs": [],
      "name": "totalSupply",
      "outputs": [
        {
          "internalType": "uint256",
          "name": "",
          "type": "uint256"
        }
      ],
      "stateMutability": "view",
      "type": "function"
    },
    {
      "inputs": [
        {
          "internalType": "address",
          "name": "to",
          "type": "address"
        },
        {
          "internalType": "uint256",
          "name": "amount",
          "type": "uint256"
        }
      ],
      "name": "transfer",
      "outputs": [
        {
          "internalType": "bool",
          "name": "",
          "type": "bool"
        }
      ],
      "stateMutability": "nonpayable",
      "type": "function"
    },
    {
      "inputs": [
        {
          "internalType": "address",
          "name": "from",
          "type": "address"
        },
        {
          "internalType": "address",
          "name": "to",
          "type": "address"
        },
        {
          "internalType": "uint256",
          "name": "amount",
          "type": "uint256"
        }
      ],
      "name": "transferFrom",
      "outputs": [
        {
          "internalType": "bool",
          "name": "",
          "type": "bool"
        }
      ],
      "stateMutability": "nonpayable",
      "type": "function"
    },
    {
      "inputs": [
        {
          "internalType": "bytes32",
          "name": "messageHash",
          "type": "bytes32"
        },
        {
          "internalType": "bytes",
          "name": "signature",
          "type": "bytes"
        }
      ],
      "name": "verifySignature",
      "outputs": [
        {
          "internalType": "address",
          "name": "",
          "type": "address"
        }
      ],
      "stateMutability": "pure",
      "type": "function"
    },
    {
      "inputs": [
        {
          "internalType": "address",
          "name": "",
          "type": "address"
        }
      ],
      "name": "workerToWork",
      "outputs": [
        {
          "internalType": "uint256",
          "name": "id",
          "type": "uint256"
        },
        {
          "internalType": "uint256",
          "name": "gram",
          "type": "uint256"
        }
      ],
      "stateMutability": "view",
      "type": "function"
    }
  ],
  "bytecode": "0x60806040523480156200001157600080fd5b506040518060400160405280600c81526020017f53414c56415245546f6b656e00000000000000000000000000000000000000008152506040518060400160405280600781526020017f53414c564152450000000000000000000000000000000000000000000000000081525081600390816200008f9190620018ef565b508060049081620000a19190620018ef565b505050620000b4620000d660201b60201c565b620000d03069d3c21bcecceda1000000620014fe60201b60201c565b62001af1565b600560405180610160016040528060008152602001600073ffffffffffffffffffffffffffffffffffffffff168152602001600073ffffffffffffffffffffffffffffffffffffffff16815260200160405180602001604052806000815250815260200160405180602001604052806000815250815260200160008152602001600081526020016000815260200160008152602001600081526020016040518060a001604052806000815260200160405180602001604052806000815250815260200160405180602001604052806000815250815260200160008152602001600081525081525090806001815401808255809150506001900390600052602060002090600f02016000909190919091506000820151816000015560208201518160010160006101000a81548173ffffffffffffffffffffffffffffffffffffffff021916908373ffffffffffffffffffffffffffffffffffffffff16021790555060408201518160020160006101000a81548173ffffffffffffffffffffffffffffffffffffffff021916908373ffffffffffffffffffffffffffffffffffffffff1602179055506060820151816003019081620002959190620018ef565b506080820151816004019081620002ad9190620018ef565b5060a0820151816005015560c0820151816006015560e082015181600701556101008201518160080155610120820151816009015561014082015181600a016000820151816000015560208201518160010190816200030d9190620018ef565b506040820151816002019081620003259190620018ef565b50606082015181600301556080820151816004015550505050600560405180610160016040528060018152602001735b38da6a701c568545dcfcb03fcb875f56beddc473ffffffffffffffffffffffffffffffffffffffff168152602001600073ffffffffffffffffffffffffffffffffffffffff1681526020016040518060400160405280601381526020017fe6b88be8b0b720e3838fe38381e585ace5898d000000000000000000000000008152508152602001604051806080016040528060588152602001620043cf605891398152602001660cab1b9307254681526020016631a1eac67e3ce881526020016127108152602001614e208152602001600081526020016040518060a00160405280600081526020016040518060400160405280601281526020017fe6b88be8b0b7e6b885e68e83e5b7a5e5a0b40000000000000000000000000000815250815260200160405180606001604052806036815260200162004399603691398152602001660caaa9cf532fc881526020016631a23b2c57916381525081525090806001815401808255809150506001900390600052602060002090600f02016000909190919091506000820151816000015560208201518160010160006101000a81548173ffffffffffffffffffffffffffffffffffffffff021916908373ffffffffffffffffffffffffffffffffffffffff16021790555060408201518160020160006101000a81548173ffffffffffffffffffffffffffffffffffffffff021916908373ffffffffffffffffffffffffffffffffffffffff16021790555060608201518160030190816200058a9190620018ef565b506080820151816004019081620005a29190620018ef565b5060a0820151816005015560c0820151816006015560e082015181600701556101008201518160080155610120820151816009015561014082015181600a01600082015181600001556020820151816001019081620006029190620018ef565b5060408201518160020190816200061a9190620018ef565b50606082015181600301556080820151816004015550505050600560405180610160016040528060028152602001735b38da6a701c568545dcfcb03fcb875f56beddc473ffffffffffffffffffffffffffffffffffffffff168152602001600073ffffffffffffffffffffffffffffffffffffffff1681526020016040518060400160405280601481526020017f536869627579612d6b75204164647265737320320000000000000000000000008152508152602001604051806080016040528060588152602001620043cf605891398152602001660cab2540edc4fc81526020016631a1fb81ace0048152602001612af88152602001614e208152602001600081526020016040518060a00160405280600081526020016040518060400160405280601281526020017fe6b88be8b0b7e6b885e68e83e5b7a5e5a0b40000000000000000000000000000815250815260200160405180606001604052806036815260200162004399603691398152602001660caaa9cf532fc881526020016631a23b2c57916381525081525090806001815401808255809150506001900390600052602060002090600f02016000909190919091506000820151816000015560208201518160010160006101000a81548173ffffffffffffffffffffffffffffffffffffffff021916908373ffffffffffffffffffffffffffffffffffffffff16021790555060408201518160020160006101000a81548173ffffffffffffffffffffffffffffffffffffffff021916908373ffffffffffffffffffffffffffffffffffffffff16021790555060608201518160030190816200087f9190620018ef565b506080820151816004019081620008979190620018ef565b5060a0820151816005015560c0820151816006015560e082015181600701556101008201518160080155610120820151816009015561014082015181600a01600082015181600001556020820151816001019081620008f79190620018ef565b5060408201518160020190816200090f9190620018ef565b50606082015181600301556080820151816004015550505050600560405180610160016040528060038152602001735b38da6a701c568545dcfcb03fcb875f56beddc473ffffffffffffffffffffffffffffffffffffffff168152602001600073ffffffffffffffffffffffffffffffffffffffff1681526020016040518060400160405280601481526020017f536869627579612d6b75204164647265737320330000000000000000000000008152508152602001604051806080016040528060588152602001620043cf605891398152602001660cab1c1040027981526020016631a1f6c4a8dd4081526020016104b08152602001614e208152602001600081526020016040518060a00160405280600081526020016040518060400160405280601281526020017fe6b88be8b0b7e6b885e68e83e5b7a5e5a0b40000000000000000000000000000815250815260200160405180606001604052806036815260200162004399603691398152602001660caaa9cf532fc881526020016631a23b2c57916381525081525090806001815401808255809150506001900390600052602060002090600f02016000909190919091506000820151816000015560208201518160010160006101000a81548173ffffffffffffffffffffffffffffffffffffffff021916908373ffffffffffffffffffffffffffffffffffffffff16021790555060408201518160020160006101000a81548173ffffffffffffffffffffffffffffffffffffffff021916908373ffffffffffffffffffffffffffffffffffffffff160217905550606082015181600301908162000b749190620018ef565b50608082015181600401908162000b8c9190620018ef565b5060a0820151816005015560c0820151816006015560e082015181600701556101008201518160080155610120820151816009015561014082015181600a0160008201518160000155602082015181600101908162000bec9190620018ef565b50604082015181600201908162000c049190620018ef565b50606082015181600301556080820151816004015550505050600560405180610160016040528060048152602001735b38da6a701c568545dcfcb03fcb875f56beddc473ffffffffffffffffffffffffffffffffffffffff168152602001600073ffffffffffffffffffffffffffffffffffffffff1681526020016040518060400160405280601481526020017f536869627579612d6b75204164647265737320340000000000000000000000008152508152602001604051806080016040528060588152602001620043cf605891398152602001660cab283bf50d8181526020016631a19f2f6f5e4f81526020016132c88152602001614e208152602001600081526020016040518060a00160405280600081526020016040518060400160405280601281526020017fe6b88be8b0b7e6b885e68e83e5b7a5e5a0b40000000000000000000000000000815250815260200160405180606001604052806036815260200162004399603691398152602001660caaa9cf532fc881526020016631a23b2c57916381525081525090806001815401808255809150506001900390600052602060002090600f02016000909190919091506000820151816000015560208201518160010160006101000a81548173ffffffffffffffffffffffffffffffffffffffff021916908373ffffffffffffffffffffffffffffffffffffffff16021790555060408201518160020160006101000a81548173ffffffffffffffffffffffffffffffffffffffff021916908373ffffffffffffffffffffffffffffffffffffffff160217905550606082015181600301908162000e699190620018ef565b50608082015181600401908162000e819190620018ef565b5060a0820151816005015560c0820151816006015560e082015181600701556101008201518160080155610120820151816009015561014082015181600a0160008201518160000155602082015181600101908162000ee19190620018ef565b50604082015181600201908162000ef99190620018ef565b50606082015181600301556080820151816004015550505050600560405180610160016040528060058152602001735b38da6a701c568545dcfcb03fcb875f56beddc473ffffffffffffffffffffffffffffffffffffffff168152602001600073ffffffffffffffffffffffffffffffffffffffff1681526020016040518060400160405280601481526020017f536869627579612d6b75204164647265737320350000000000000000000000008152508152602001604051806080016040528060588152602001620043cf605891398152602001660cab0d887350cd81526020016631a19ff3152d3881526020016136b08152602001614e208152602001600081526020016040518060a00160405280600081526020016040518060400160405280601281526020017fe6b88be8b0b7e6b885e68e83e5b7a5e5a0b40000000000000000000000000000815250815260200160405180606001604052806036815260200162004399603691398152602001660caaa9cf532fc881526020016631a23b2c57916381525081525090806001815401808255809150506001900390600052602060002090600f02016000909190919091506000820151816000015560208201518160010160006101000a81548173ffffffffffffffffffffffffffffffffffffffff021916908373ffffffffffffffffffffffffffffffffffffffff16021790555060408201518160020160006101000a81548173ffffffffffffffffffffffffffffffffffffffff021916908373ffffffffffffffffffffffffffffffffffffffff16021790555060608201518160030190816200115e9190620018ef565b506080820151816004019081620011769190620018ef565b5060a0820151816005015560c0820151816006015560e082015181600701556101008201518160080155610120820151816009015561014082015181600a01600082015181600001556020820151816001019081620011d69190620018ef565b506040820151816002019081620011ee9190620018ef565b50606082015181600301556080820151816004015550505050600560405180610160016040528060068152602001735b38da6a701c568545dcfcb03fcb875f56beddc473ffffffffffffffffffffffffffffffffffffffff168152602001600073ffffffffffffffffffffffffffffffffffffffff1681526020016040518060400160405280601481526020017f536869627579612d6b75204164647265737320360000000000000000000000008152508152602001604051806080016040528060588152602001620043cf605891398152602001660cab133e9e3c6381526020016631a1ccd59441c88152602001613a988152602001614e208152602001600081526020016040518060a00160405280600081526020016040518060400160405280601281526020017fe6b88be8b0b7e6b885e68e83e5b7a5e5a0b40000000000000000000000000000815250815260200160405180606001604052806036815260200162004399603691398152602001660caaa9cf532fc881526020016631a23b2c57916381525081525090806001815401808255809150506001900390600052602060002090600f02016000909190919091506000820151816000015560208201518160010160006101000a81548173ffffffffffffffffffffffffffffffffffffffff021916908373ffffffffffffffffffffffffffffffffffffffff16021790555060408201518160020160006101000a81548173ffffffffffffffffffffffffffffffffffffffff021916908373ffffffffffffffffffffffffffffffffffffffff1602179055506060820151816003019081620014539190620018ef565b5060808201518160040190816200146b9190620018ef565b5060a0820151816005015560c0820151816006015560e082015181600701556101008201518160080155610120820151816009015561014082015181600a01600082015181600001556020820151816001019081620014cb9190620018ef565b506040820151816002019081620014e39190620018ef565b50606082015181600301556080820151816004015550505050565b600073ffffffffffffffffffffffffffffffffffffffff168273ffffffffffffffffffffffffffffffffffffffff160362001570576040517f08c379a0000000000000000000000000000000000000000000000000000000008152600401620015679062001a37565b60405180910390fd5b62001584600083836200166b60201b60201c565b806002600082825462001598919062001a88565b92505081905550806000808473ffffffffffffffffffffffffffffffffffffffff1673ffffffffffffffffffffffffffffffffffffffff168152602001908152602001600020600082825401925050819055508173ffffffffffffffffffffffffffffffffffffffff16600073ffffffffffffffffffffffffffffffffffffffff167fddf252ad1be2c89b69c2b068fc378daa952ba7f163c4a11628f55a4df523b3ef836040516200164b919062001ad4565b60405180910390a362001667600083836200167060201b60201c565b5050565b505050565b505050565b600081519050919050565b7f4e487b7100000000000000000000000000000000000000000000000000000000600052604160045260246000fd5b7f4e487b7100000000000000000000000000000000000000000000000000000000600052602260045260246000fd5b60006002820490506001821680620016f757607f821691505b6020821081036200170d576200170c620016af565b5b50919050565b60008190508160005260206000209050919050565b60006020601f8301049050919050565b600082821b905092915050565b600060088302620017777fffffffffffffffffffffffffffffffffffffffffffffffffffffffffffffffff8262001738565b62001783868362001738565b95508019841693508086168417925050509392505050565b6000819050919050565b6000819050919050565b6000620017d0620017ca620017c4846200179b565b620017a5565b6200179b565b9050919050565b6000819050919050565b620017ec83620017af565b62001804620017fb82620017d7565b84845462001745565b825550505050565b600090565b6200181b6200180c565b62001828818484620017e1565b505050565b5b8181101562001850576200184460008262001811565b6001810190506200182e565b5050565b601f8211156200189f57620018698162001713565b620018748462001728565b8101602085101562001884578190505b6200189c620018938562001728565b8301826200182d565b50505b505050565b600082821c905092915050565b6000620018c460001984600802620018a4565b1980831691505092915050565b6000620018df8383620018b1565b9150826002028217905092915050565b620018fa8262001675565b67ffffffffffffffff81111562001916576200191562001680565b5b620019228254620016de565b6200192f82828562001854565b600060209050601f83116001811462001967576000841562001952578287015190505b6200195e8582620018d1565b865550620019ce565b601f198416620019778662001713565b60005b82811015620019a1578489015182556001820191506020850194506020810190506200197a565b86831015620019c15784890151620019bd601f891682620018b1565b8355505b6001600288020188555050505b505050505050565b600082825260208201905092915050565b7f45524332303a206d696e7420746f20746865207a65726f206164647265737300600082015250565b600062001a1f601f83620019d6565b915062001a2c82620019e7565b602082019050919050565b6000602082019050818103600083015262001a528162001a10565b9050919050565b7f4e487b7100000000000000000000000000000000000000000000000000000000600052601160045260246000fd5b600062001a95826200179b565b915062001aa2836200179b565b925082820190508082111562001abd5762001abc62001a59565b5b92915050565b62001ace816200179b565b82525050565b600060208201905062001aeb600083018462001ac3565b92915050565b6128988062001b016000396000f3fe608060405234801561001057600080fd5b50600436106101215760003560e01c80635e0f6fb8116100ad578063a457c2d711610071578063a457c2d714610331578063a9059cbb14610361578063d851ba9e14610391578063daca6f78146103c1578063dd62ed3e146103f157610121565b80635e0f6fb81461026657806370a0823114610282578063760fe9be146102b257806378350073146102e357806395d89b411461031357610121565b80631ece8337116100f45780631ece8337146101ae57806323b872dd146101cc578063313ce567146101fc57806337d7948d1461021a578063395093511461023657610121565b806306fdde0314610126578063095ea7b314610144578063107bd86c1461017457806318160ddd14610190575b600080fd5b61012e610421565b60405161013b9190611818565b60405180910390f35b61015e600480360381019061015991906118e2565b6104b3565b60405161016b919061193d565b60405180910390f35b61018e60048036038101906101899190611958565b6104d6565b005b610198610504565b6040516101a591906119a7565b60405180910390f35b6101b661050e565b6040516101c39190611c66565b60405180910390f35b6101e660048036038101906101e19190611c88565b6108d0565b6040516101f3919061193d565b60405180910390f35b6102046108ff565b6040516102119190611cf7565b60405180910390f35b610234600480360381019061022f9190611e7d565b610908565b005b610250600480360381019061024b91906118e2565b610a2b565b60405161025d919061193d565b60405180910390f35b610280600480360381019061027b9190611f00565b610a62565b005b61029c60048036038101906102979190611f6f565b610c86565b6040516102a991906119a7565b60405180910390f35b6102cc60048036038101906102c79190611f6f565b610cce565b6040516102da929190611f9c565b60405180910390f35b6102fd60048036038101906102f89190611f6f565b610cf2565b60405161030a9190611ff4565b60405180910390f35b61031b610d5f565b6040516103289190611818565b60405180910390f35b61034b600480360381019061034691906118e2565b610df1565b604051610358919061193d565b60405180910390f35b61037b600480360381019061037691906118e2565b610e68565b604051610388919061193d565b60405180910390f35b6103ab60048036038101906103a69190611f6f565b610e8b565b6040516103b89190611ff4565b60405180910390f35b6103db60048036038101906103d6919061200f565b610ef8565b6040516103e8919061207a565b60405180910390f35b61040b60048036038101906104069190612095565b610f14565b60405161041891906119a7565b60405180910390f35b60606003805461043090612104565b80601f016020809104026020016040519081016040528092919081815260200182805461045c90612104565b80156104a95780601f1061047e576101008083540402835291602001916104a9565b820191906000526020600020905b81548152906001019060200180831161048c57829003601f168201915b5050505050905090565b6000806104be610f9b565b90506104cb818585610fa3565b600191505092915050565b81600582815481106104eb576104ea612135565b5b90600052602060002090600f0201600701819055505050565b6000600254905090565b60606005805480602002602001604051908101604052809291908181526020016000905b828210156108c757838290600052602060002090600f020160405180610160016040529081600082015481526020016001820160009054906101000a900473ffffffffffffffffffffffffffffffffffffffff1673ffffffffffffffffffffffffffffffffffffffff1673ffffffffffffffffffffffffffffffffffffffff1681526020016002820160009054906101000a900473ffffffffffffffffffffffffffffffffffffffff1673ffffffffffffffffffffffffffffffffffffffff1673ffffffffffffffffffffffffffffffffffffffff16815260200160038201805461061c90612104565b80601f016020809104026020016040519081016040528092919081815260200182805461064890612104565b80156106955780601f1061066a57610100808354040283529160200191610695565b820191906000526020600020905b81548152906001019060200180831161067857829003601f168201915b505050505081526020016004820180546106ae90612104565b80601f01602080910402602001604051908101604052809291908181526020018280546106da90612104565b80156107275780601f106106fc57610100808354040283529160200191610727565b820191906000526020600020905b81548152906001019060200180831161070a57829003601f168201915b505050505081526020016005820154815260200160068201548152602001600782015481526020016008820154815260200160098201548152602001600a82016040518060a00160405290816000820154815260200160018201805461078c90612104565b80601f01602080910402602001604051908101604052809291908181526020018280546107b890612104565b80156108055780601f106107da57610100808354040283529160200191610805565b820191906000526020600020905b8154815290600101906020018083116107e857829003601f168201915b5050505050815260200160028201805461081e90612104565b80601f016020809104026020016040519081016040528092919081815260200182805461084a90612104565b80156108975780601f1061086c57610100808354040283529160200191610897565b820191906000526020600020905b81548152906001019060200180831161087a57829003601f168201915b50505050508152602001600382015481526020016004820154815250508152505081526020019060010190610532565b50505050905090565b6000806108db610f9b565b90506108e885828561116c565b6108f38585856111f8565b60019150509392505050565b60006012905090565b60006109148484610ef8565b905084600660008373ffffffffffffffffffffffffffffffffffffffff1673ffffffffffffffffffffffffffffffffffffffff1681526020019081526020016000206001018190555081600660008373ffffffffffffffffffffffffffffffffffffffff1673ffffffffffffffffffffffffffffffffffffffff1681526020019081526020016000206000018190555084600583815481106109b9576109b8612135565b5b90600052602060002090600f020160070160008282546109d99190612193565b92505081905550818173ffffffffffffffffffffffffffffffffffffffff167f8fc01ae8a764e12128400c3f6f8d147880b3e60e4855fa8f7c3dff63dd0efdd060405160405180910390a35050505050565b600080610a36610f9b565b9050610a57818585610a488589610f14565b610a5291906121c7565b610fa3565b600191505092915050565b6000610a6e8383610ef8565b90506000600660008373ffffffffffffffffffffffffffffffffffffffff1673ffffffffffffffffffffffffffffffffffffffff168152602001908152602001600020600101549050600660008373ffffffffffffffffffffffffffffffffffffffff1673ffffffffffffffffffffffffffffffffffffffff168152602001908152602001600020600001548273ffffffffffffffffffffffffffffffffffffffff167fcd8cdd85d8680621d49962288f1fffb4a1c542431923fe9d6e7afc39d8e55d8a60405160405180910390a38173ffffffffffffffffffffffffffffffffffffffff167f134e340554ff8a7d64280a2a28b982df554e2595e5bf45cd39368f31099172a6670de0b6b3a764000087610b8991906121fb565b610b9285610c86565b610b9c91906121c7565b604051610ba991906119a7565b60405180910390a26000600660008473ffffffffffffffffffffffffffffffffffffffff1673ffffffffffffffffffffffffffffffffffffffff168152602001908152602001600020600101819055506000600660008473ffffffffffffffffffffffffffffffffffffffff1673ffffffffffffffffffffffffffffffffffffffff1681526020019081526020016000206000018190555084600a82610c4f919061226c565b82610c5a9190612193565b1015610c7f57610c7e3083670de0b6b3a764000088610c7991906121fb565b6111f8565b5b5050505050565b60008060008373ffffffffffffffffffffffffffffffffffffffff1673ffffffffffffffffffffffffffffffffffffffff168152602001908152602001600020549050919050565b60066020528060005260406000206000915090508060000154908060010154905082565b610cfa61176e565b600660008373ffffffffffffffffffffffffffffffffffffffff1673ffffffffffffffffffffffffffffffffffffffff168152602001908152602001600020604051806040016040529081600082015481526020016001820154815250509050919050565b606060048054610d6e90612104565b80601f0160208091040260200160405190810160405280929190818152602001828054610d9a90612104565b8015610de75780601f10610dbc57610100808354040283529160200191610de7565b820191906000526020600020905b815481529060010190602001808311610dca57829003601f168201915b5050505050905090565b600080610dfc610f9b565b90506000610e0a8286610f14565b905083811015610e4f576040517f08c379a0000000000000000000000000000000000000000000000000000000008152600401610e469061230f565b60405180910390fd5b610e5c8286868403610fa3565b60019250505092915050565b600080610e73610f9b565b9050610e808185856111f8565b600191505092915050565b610e9361176e565b600660008373ffffffffffffffffffffffffffffffffffffffff1673ffffffffffffffffffffffffffffffffffffffff168152602001908152602001600020604051806040016040529081600082015481526020016001820154815250509050919050565b6000610f0c610f068461146e565b836114a4565b905092915050565b6000600160008473ffffffffffffffffffffffffffffffffffffffff1673ffffffffffffffffffffffffffffffffffffffff16815260200190815260200160002060008373ffffffffffffffffffffffffffffffffffffffff1673ffffffffffffffffffffffffffffffffffffffff16815260200190815260200160002054905092915050565b600033905090565b600073ffffffffffffffffffffffffffffffffffffffff168373ffffffffffffffffffffffffffffffffffffffff1603611012576040517f08c379a0000000000000000000000000000000000000000000000000000000008152600401611009906123a1565b60405180910390fd5b600073ffffffffffffffffffffffffffffffffffffffff168273ffffffffffffffffffffffffffffffffffffffff1603611081576040517f08c379a000000000000000000000000000000000000000000000000000000000815260040161107890612433565b60405180910390fd5b80600160008573ffffffffffffffffffffffffffffffffffffffff1673ffffffffffffffffffffffffffffffffffffffff16815260200190815260200160002060008473ffffffffffffffffffffffffffffffffffffffff1673ffffffffffffffffffffffffffffffffffffffff168152602001908152602001600020819055508173ffffffffffffffffffffffffffffffffffffffff168373ffffffffffffffffffffffffffffffffffffffff167f8c5be1e5ebec7d5bd14f71427d1e84f3dd0314c0f7b2291e5b200ac8c7c3b9258360405161115f91906119a7565b60405180910390a3505050565b60006111788484610f14565b90507fffffffffffffffffffffffffffffffffffffffffffffffffffffffffffffffff81146111f257818110156111e4576040517f08c379a00000000000000000000000000000000000000000000000000000000081526004016111db9061249f565b60405180910390fd5b6111f18484848403610fa3565b5b50505050565b600073ffffffffffffffffffffffffffffffffffffffff168373ffffffffffffffffffffffffffffffffffffffff1603611267576040517f08c379a000000000000000000000000000000000000000000000000000000000815260040161125e90612531565b60405180910390fd5b600073ffffffffffffffffffffffffffffffffffffffff168273ffffffffffffffffffffffffffffffffffffffff16036112d6576040517f08c379a00000000000000000000000000000000000000000000000000000000081526004016112cd906125c3565b60405180910390fd5b6112e18383836114cb565b60008060008573ffffffffffffffffffffffffffffffffffffffff1673ffffffffffffffffffffffffffffffffffffffff16815260200190815260200160002054905081811015611367576040517f08c379a000000000000000000000000000000000000000000000000000000000815260040161135e90612655565b60405180910390fd5b8181036000808673ffffffffffffffffffffffffffffffffffffffff1673ffffffffffffffffffffffffffffffffffffffff16815260200190815260200160002081905550816000808573ffffffffffffffffffffffffffffffffffffffff1673ffffffffffffffffffffffffffffffffffffffff168152602001908152602001600020600082825401925050819055508273ffffffffffffffffffffffffffffffffffffffff168473ffffffffffffffffffffffffffffffffffffffff167fddf252ad1be2c89b69c2b068fc378daa952ba7f163c4a11628f55a4df523b3ef8460405161145591906119a7565b60405180910390a36114688484846114d0565b50505050565b60007f19457468657265756d205369676e6564204d6573736167653a0a33320000000060005281601c52603c6000209050919050565b60008060006114b385856114d5565b915091506114c081611526565b819250505092915050565b505050565b505050565b60008060418351036115165760008060006020860151925060408601519150606086015160001a905061150a8782858561168c565b9450945050505061151f565b60006002915091505b9250929050565b6000600481111561153a57611539612675565b5b81600481111561154d5761154c612675565b5b0315611689576001600481111561156757611566612675565b5b81600481111561157a57611579612675565b5b036115ba576040517f08c379a00000000000000000000000000000000000000000000000000000000081526004016115b1906126f0565b60405180910390fd5b600260048111156115ce576115cd612675565b5b8160048111156115e1576115e0612675565b5b03611621576040517f08c379a00000000000000000000000000000000000000000000000000000000081526004016116189061275c565b60405180910390fd5b6003600481111561163557611634612675565b5b81600481111561164857611647612675565b5b03611688576040517f08c379a000000000000000000000000000000000000000000000000000000000815260040161167f906127ee565b60405180910390fd5b5b50565b6000807f7fffffffffffffffffffffffffffffff5d576e7357a4501ddfe92f46681b20a08360001c11156116c7576000600391509150611765565b6000600187878787604051600081526020016040526040516116ec949392919061281d565b6020604051602081039080840390855afa15801561170e573d6000803e3d6000fd5b505050602060405103519050600073ffffffffffffffffffffffffffffffffffffffff168173ffffffffffffffffffffffffffffffffffffffff160361175c57600060019250925050611765565b80600092509250505b94509492505050565b604051806040016040528060008152602001600081525090565b600081519050919050565b600082825260208201905092915050565b60005b838110156117c25780820151818401526020810190506117a7565b60008484015250505050565b6000601f19601f8301169050919050565b60006117ea82611788565b6117f48185611793565b93506118048185602086016117a4565b61180d816117ce565b840191505092915050565b6000602082019050818103600083015261183281846117df565b905092915050565b6000604051905090565b600080fd5b600080fd5b600073ffffffffffffffffffffffffffffffffffffffff82169050919050565b60006118798261184e565b9050919050565b6118898161186e565b811461189457600080fd5b50565b6000813590506118a681611880565b92915050565b6000819050919050565b6118bf816118ac565b81146118ca57600080fd5b50565b6000813590506118dc816118b6565b92915050565b600080604083850312156118f9576118f8611844565b5b600061190785828601611897565b9250506020611918858286016118cd565b9150509250929050565b60008115159050919050565b61193781611922565b82525050565b6000602082019050611952600083018461192e565b92915050565b6000806040838503121561196f5761196e611844565b5b600061197d858286016118cd565b925050602061198e858286016118cd565b9150509250929050565b6119a1816118ac565b82525050565b60006020820190506119bc6000830184611998565b92915050565b600081519050919050565b600082825260208201905092915050565b6000819050602082019050919050565b6119f7816118ac565b82525050565b611a068161186e565b82525050565b600082825260208201905092915050565b6000611a2882611788565b611a328185611a0c565b9350611a428185602086016117a4565b611a4b816117ce565b840191505092915050565b600060a083016000830151611a6e60008601826119ee565b5060208301518482036020860152611a868282611a1d565b91505060408301518482036040860152611aa08282611a1d565b9150506060830151611ab560608601826119ee565b506080830151611ac860808601826119ee565b508091505092915050565b600061016083016000830151611aec60008601826119ee565b506020830151611aff60208601826119fd565b506040830151611b1260408601826119fd565b5060608301518482036060860152611b2a8282611a1d565b91505060808301518482036080860152611b448282611a1d565b91505060a0830151611b5960a08601826119ee565b5060c0830151611b6c60c08601826119ee565b5060e0830151611b7f60e08601826119ee565b50610100830151611b946101008601826119ee565b50610120830151611ba96101208601826119ee565b50610140830151848203610140860152611bc38282611a56565b9150508091505092915050565b6000611bdc8383611ad3565b905092915050565b6000602082019050919050565b6000611bfc826119c2565b611c0681856119cd565b935083602082028501611c18856119de565b8060005b85811015611c545784840389528151611c358582611bd0565b9450611c4083611be4565b925060208a01995050600181019050611c1c565b50829750879550505050505092915050565b60006020820190508181036000830152611c808184611bf1565b905092915050565b600080600060608486031215611ca157611ca0611844565b5b6000611caf86828701611897565b9350506020611cc086828701611897565b9250506040611cd1868287016118cd565b9150509250925092565b600060ff82169050919050565b611cf181611cdb565b82525050565b6000602082019050611d0c6000830184611ce8565b92915050565b6000819050919050565b611d2581611d12565b8114611d3057600080fd5b50565b600081359050611d4281611d1c565b92915050565b600080fd5b600080fd5b7f4e487b7100000000000000000000000000000000000000000000000000000000600052604160045260246000fd5b611d8a826117ce565b810181811067ffffffffffffffff82111715611da957611da8611d52565b5b80604052505050565b6000611dbc61183a565b9050611dc88282611d81565b919050565b600067ffffffffffffffff821115611de857611de7611d52565b5b611df1826117ce565b9050602081019050919050565b82818337600083830152505050565b6000611e20611e1b84611dcd565b611db2565b905082815260208101848484011115611e3c57611e3b611d4d565b5b611e47848285611dfe565b509392505050565b600082601f830112611e6457611e63611d48565b5b8135611e74848260208601611e0d565b91505092915050565b60008060008060808587031215611e9757611e96611844565b5b6000611ea5878288016118cd565b9450506020611eb687828801611d33565b935050604085013567ffffffffffffffff811115611ed757611ed6611849565b5b611ee387828801611e4f565b9250506060611ef4878288016118cd565b91505092959194509250565b600080600060608486031215611f1957611f18611844565b5b6000611f27868287016118cd565b9350506020611f3886828701611d33565b925050604084013567ffffffffffffffff811115611f5957611f58611849565b5b611f6586828701611e4f565b9150509250925092565b600060208284031215611f8557611f84611844565b5b6000611f9384828501611897565b91505092915050565b6000604082019050611fb16000830185611998565b611fbe6020830184611998565b9392505050565b604082016000820151611fdb60008501826119ee565b506020820151611fee60208501826119ee565b50505050565b60006040820190506120096000830184611fc5565b92915050565b6000806040838503121561202657612025611844565b5b600061203485828601611d33565b925050602083013567ffffffffffffffff81111561205557612054611849565b5b61206185828601611e4f565b9150509250929050565b6120748161186e565b82525050565b600060208201905061208f600083018461206b565b92915050565b600080604083850312156120ac576120ab611844565b5b60006120ba85828601611897565b92505060206120cb85828601611897565b9150509250929050565b7f4e487b7100000000000000000000000000000000000000000000000000000000600052602260045260246000fd5b6000600282049050600182168061211c57607f821691505b60208210810361212f5761212e6120d5565b5b50919050565b7f4e487b7100000000000000000000000000000000000000000000000000000000600052603260045260246000fd5b7f4e487b7100000000000000000000000000000000000000000000000000000000600052601160045260246000fd5b600061219e826118ac565b91506121a9836118ac565b92508282039050818111156121c1576121c0612164565b5b92915050565b60006121d2826118ac565b91506121dd836118ac565b92508282019050808211156121f5576121f4612164565b5b92915050565b6000612206826118ac565b9150612211836118ac565b925082820261221f816118ac565b9150828204841483151761223657612235612164565b5b5092915050565b7f4e487b7100000000000000000000000000000000000000000000000000000000600052601260045260246000fd5b6000612277826118ac565b9150612282836118ac565b9250826122925761229161223d565b5b828204905092915050565b7f45524332303a2064656372656173656420616c6c6f77616e63652062656c6f7760008201527f207a65726f000000000000000000000000000000000000000000000000000000602082015250565b60006122f9602583611793565b91506123048261229d565b604082019050919050565b60006020820190508181036000830152612328816122ec565b9050919050565b7f45524332303a20617070726f76652066726f6d20746865207a65726f2061646460008201527f7265737300000000000000000000000000000000000000000000000000000000602082015250565b600061238b602483611793565b91506123968261232f565b604082019050919050565b600060208201905081810360008301526123ba8161237e565b9050919050565b7f45524332303a20617070726f766520746f20746865207a65726f20616464726560008201527f7373000000000000000000000000000000000000000000000000000000000000602082015250565b600061241d602283611793565b9150612428826123c1565b604082019050919050565b6000602082019050818103600083015261244c81612410565b9050919050565b7f45524332303a20696e73756666696369656e7420616c6c6f77616e6365000000600082015250565b6000612489601d83611793565b915061249482612453565b602082019050919050565b600060208201905081810360008301526124b88161247c565b9050919050565b7f45524332303a207472616e736665722066726f6d20746865207a65726f20616460008201527f6472657373000000000000000000000000000000000000000000000000000000602082015250565b600061251b602583611793565b9150612526826124bf565b604082019050919050565b6000602082019050818103600083015261254a8161250e565b9050919050565b7f45524332303a207472616e7366657220746f20746865207a65726f206164647260008201527f6573730000000000000000000000000000000000000000000000000000000000602082015250565b60006125ad602383611793565b91506125b882612551565b604082019050919050565b600060208201905081810360008301526125dc816125a0565b9050919050565b7f45524332303a207472616e7366657220616d6f756e742065786365656473206260008201527f616c616e63650000000000000000000000000000000000000000000000000000602082015250565b600061263f602683611793565b915061264a826125e3565b604082019050919050565b6000602082019050818103600083015261266e81612632565b9050919050565b7f4e487b7100000000000000000000000000000000000000000000000000000000600052602160045260246000fd5b7f45434453413a20696e76616c6964207369676e61747572650000000000000000600082015250565b60006126da601883611793565b91506126e5826126a4565b602082019050919050565b60006020820190508181036000830152612709816126cd565b9050919050565b7f45434453413a20696e76616c6964207369676e6174757265206c656e67746800600082015250565b6000612746601f83611793565b915061275182612710565b602082019050919050565b6000602082019050818103600083015261277581612739565b9050919050565b7f45434453413a20696e76616c6964207369676e6174757265202773272076616c60008201527f7565000000000000000000000000000000000000000000000000000000000000602082015250565b60006127d8602283611793565b91506127e38261277c565b604082019050919050565b60006020820190508181036000830152612807816127cb565b9050919050565b61281781611d12565b82525050565b6000608082019050612832600083018761280e565b61283f6020830186611ce8565b61284c604083018561280e565b612859606083018461280e565b9594505050505056fea26469706673582212201f3c29ad500427838db6840e548492d8175aa954eab432f348996db68b6765b064736f6c63430008120033e380923135302d3030313120e69db1e4baace983bde6b88be8b0b7e58cbae69db1efbc91e4b881e79baeefbc93efbc95e28892efbc9168747470733a2f2f63646e2e646973636f72646170702e636f6d2f6174746163686d656e74732f313038373335343834353637353132363738362f313131353634353633393035333830373733382f696d6167652e706e67",
  "linkReferences": {},
  "deployedLinkReferences": {}
}