{
  "_format": "hh-sol-artifact-1",
  "contractName": "SALVARE",
  "sourceName": "contracts/SALVARE.sol",
  "abi": [
    {
      "inputs": [],
      "stateMutability": "nonpayable",
      "type": "constructor"
    },
    {
      "anonymous": false,
      "inputs": [
        {
          "indexed": true,
          "internalType": "address",
          "name": "owner",
          "type": "address"
        },
        {
          "indexed": true,
          "internalType": "address",
          "name": "spender",
          "type": "address"
        },
        {
          "indexed": false,
          "internalType": "uint256",
          "name": "value",
          "type": "uint256"
        }
      ],
      "name": "Approval",
      "type": "event"
    },
    {
      "anonymous": false,
      "inputs": [
        {
          "indexed": true,
          "internalType": "address",
          "name": "worker",
          "type": "address"
        },
        {
          "indexed": true,
          "internalType": "uint256",
          "name": "id",
          "type": "uint256"
        }
      ],
      "name": "DoneWork",
      "type": "event"
    },
    {
      "anonymous": false,
      "inputs": [
        {
          "indexed": true,
          "internalType": "address",
          "name": "worker",
          "type": "address"
        },
        {
          "indexed": true,
          "internalType": "uint256",
          "name": "id",
          "type": "uint256"
        }
      ],
      "name": "StartWork",
      "type": "event"
    },
    {
      "anonymous": false,
      "inputs": [
        {
          "indexed": true,
          "internalType": "address",
          "name": "from",
          "type": "address"
        },
        {
          "indexed": true,
          "internalType": "address",
          "name": "to",
          "type": "address"
        },
        {
          "indexed": false,
          "internalType": "uint256",
          "name": "value",
          "type": "uint256"
        }
      ],
      "name": "Transfer",
      "type": "event"
    },
    {
      "inputs": [
        {
          "internalType": "address",
          "name": "owner",
          "type": "address"
        },
        {
          "internalType": "address",
          "name": "spender",
          "type": "address"
        }
      ],
      "name": "allowance",
      "outputs": [
        {
          "internalType": "uint256",
          "name": "",
          "type": "uint256"
        }
      ],
      "stateMutability": "view",
      "type": "function"
    },
    {
      "inputs": [
        {
          "internalType": "address",
          "name": "spender",
          "type": "address"
        },
        {
          "internalType": "uint256",
          "name": "amount",
          "type": "uint256"
        }
      ],
      "name": "approve",
      "outputs": [
        {
          "internalType": "bool",
          "name": "",
          "type": "bool"
        }
      ],
      "stateMutability": "nonpayable",
      "type": "function"
    },
    {
      "inputs": [
        {
          "internalType": "address",
          "name": "account",
          "type": "address"
        }
      ],
      "name": "balanceOf",
      "outputs": [
        {
          "internalType": "uint256",
          "name": "",
          "type": "uint256"
        }
      ],
      "stateMutability": "view",
      "type": "function"
    },
    {
      "inputs": [],
      "name": "decimals",
      "outputs": [
        {
          "internalType": "uint8",
          "name": "",
          "type": "uint8"
        }
      ],
      "stateMutability": "view",
      "type": "function"
    },
    {
      "inputs": [
        {
          "internalType": "address",
          "name": "spender",
          "type": "address"
        },
        {
          "internalType": "uint256",
          "name": "subtractedValue",
          "type": "uint256"
        }
      ],
      "name": "decreaseAllowance",
      "outputs": [
        {
          "internalType": "bool",
          "name": "",
          "type": "bool"
        }
      ],
      "stateMutability": "nonpayable",
      "type": "function"
    },
    {
      "inputs": [
        {
          "internalType": "uint256",
          "name": "actualWeight",
          "type": "uint256"
        },
        {
          "internalType": "bytes32",
          "name": "messageHash",
          "type": "bytes32"
        },
        {
          "internalType": "bytes",
          "name": "signature",
          "type": "bytes"
        }
      ],
      "name": "doneWork",
      "outputs": [],
      "stateMutability": "nonpayable",
      "type": "function"
    },
    {
      "inputs": [],
      "name": "getTrashCans",
      "outputs": [
        {
          "components": [
            {
              "internalType": "uint256",
              "name": "id",
              "type": "uint256"
            },
            {
              "internalType": "address",
              "name": "trashCanOwner",
              "type": "address"
            },
            {
              "internalType": "address",
              "name": "trashCan",
              "type": "address"
            },
            {
              "internalType": "string",
              "name": "trashCanLocationAddress",
              "type": "string"
            },
            {
              "internalType": "string",
              "name": "trashCanLocationImage",
              "type": "string"
            },
            {
              "internalType": "uint256",
              "name": "trashCanLatitude",
              "type": "uint256"
            },
            {
              "internalType": "uint256",
              "name": "trashCanLongitude",
              "type": "uint256"
            },
            {
              "internalType": "uint256",
              "name": "trashCanAmount",
              "type": "uint256"
            },
            {
              "internalType": "uint256",
              "name": "trashCanMaxAmount",
              "type": "uint256"
            },
            {
              "internalType": "uint256",
              "name": "trashCanReward",
              "type": "uint256"
            },
            {
              "components": [
                {
                  "internalType": "uint256",
                  "name": "id",
                  "type": "uint256"
                },
                {
                  "internalType": "string",
                  "name": "recyclingCenterName",
                  "type": "string"
                },
                {
                  "internalType": "string",
                  "name": "recyclingCenterLocationAddress",
                  "type": "string"
                },
                {
                  "internalType": "uint256",
                  "name": "recyclingCenterLatitude",
                  "type": "uint256"
                },
                {
                  "internalType": "uint256",
                  "name": "recyclingCenterLongitude",
                  "type": "uint256"
                }
              ],
              "internalType": "struct SALVARE.RecyclingCenter",
              "name": "recyclingCenter",
              "type": "tuple"
            }
          ],
          "internalType": "struct SALVARE.TrashCan[]",
          "name": "",
          "type": "tuple[]"
        }
      ],
      "stateMutability": "view",
      "type": "function"
    },
    {
      "inputs": [
        {
          "internalType": "address",
          "name": "target",
          "type": "address"
        }
      ],
      "name": "getWork",
      "outputs": [
        {
          "components": [
            {
              "internalType": "uint256",
              "name": "id",
              "type": "uint256"
            },
            {
              "internalType": "uint256",
              "name": "gram",
              "type": "uint256"
            }
          ],
          "internalType": "struct SALVARE.Work",
          "name": "",
          "type": "tuple"
        }
      ],
      "stateMutability": "view",
      "type": "function"
    },
    {
      "inputs": [
        {
          "internalType": "address",
          "name": "spender",
          "type": "address"
        },
        {
          "internalType": "uint256",
          "name": "addedValue",
          "type": "uint256"
        }
      ],
      "name": "increaseAllowance",
      "outputs": [
        {
          "internalType": "bool",
          "name": "",
          "type": "bool"
        }
      ],
      "stateMutability": "nonpayable",
      "type": "function"
    },
    {
      "inputs": [
        {
          "internalType": "address",
          "name": "worker",
          "type": "address"
        }
      ],
      "name": "isWorking",
      "outputs": [
        {
          "components": [
            {
              "internalType": "uint256",
              "name": "id",
              "type": "uint256"
            },
            {
              "internalType": "uint256",
              "name": "gram",
              "type": "uint256"
            }
          ],
          "internalType": "struct SALVARE.Work",
          "name": "",
          "type": "tuple"
        }
      ],
      "stateMutability": "view",
      "type": "function"
    },
    {
      "inputs": [],
      "name": "name",
      "outputs": [
        {
          "internalType": "string",
          "name": "",
          "type": "string"
        }
      ],
      "stateMutability": "view",
      "type": "function"
    },
    {
      "inputs": [
        {
          "internalType": "address",
          "name": "",
          "type": "address"
        }
      ],
      "name": "requesterBalances",
      "outputs": [
        {
          "internalType": "uint256",
          "name": "",
          "type": "uint256"
        }
      ],
      "stateMutability": "view",
      "type": "function"
    },
    {
      "inputs": [
        {
          "internalType": "uint256",
          "name": "_newAmount",
          "type": "uint256"
        },
        {
          "internalType": "uint256",
          "name": "id",
          "type": "uint256"
        }
      ],
      "name": "setAmountOfTrash",
      "outputs": [],
      "stateMutability": "nonpayable",
      "type": "function"
    },
    {
      "inputs": [
        {
          "internalType": "uint256",
          "name": "trashWeight",
          "type": "uint256"
        },
        {
          "internalType": "bytes32",
          "name": "messageHash",
          "type": "bytes32"
        },
        {
          "internalType": "bytes",
          "name": "signature",
          "type": "bytes"
        },
        {
          "internalType": "uint256",
          "name": "id",
          "type": "uint256"
        }
      ],
      "name": "startWork",
      "outputs": [],
      "stateMutability": "nonpayable",
      "type": "function"
    },
    {
      "inputs": [],
      "name": "symbol",
      "outputs": [
        {
          "internalType": "string",
          "name": "",
          "type": "string"
        }
      ],
      "stateMutability": "view",
      "type": "function"
    },
    {
      "inputs": [],
      "name": "totalSupply",
      "outputs": [
        {
          "internalType": "uint256",
          "name": "",
          "type": "uint256"
        }
      ],
      "stateMutability": "view",
      "type": "function"
    },
    {
      "inputs": [
        {
          "internalType": "address",
          "name": "to",
          "type": "address"
        },
        {
          "internalType": "uint256",
          "name": "amount",
          "type": "uint256"
        }
      ],
      "name": "transfer",
      "outputs": [
        {
          "internalType": "bool",
          "name": "",
          "type": "bool"
        }
      ],
      "stateMutability": "nonpayable",
      "type": "function"
    },
    {
      "inputs": [
        {
          "internalType": "address",
          "name": "from",
          "type": "address"
        },
        {
          "internalType": "address",
          "name": "to",
          "type": "address"
        },
        {
          "internalType": "uint256",
          "name": "amount",
          "type": "uint256"
        }
      ],
      "name": "transferFrom",
      "outputs": [
        {
          "internalType": "bool",
          "name": "",
          "type": "bool"
        }
      ],
      "stateMutability": "nonpayable",
      "type": "function"
    },
    {
      "inputs": [
        {
          "internalType": "bytes32",
          "name": "messageHash",
          "type": "bytes32"
        },
        {
          "internalType": "bytes",
          "name": "signature",
          "type": "bytes"
        }
      ],
      "name": "verifySignature",
      "outputs": [
        {
          "internalType": "address",
          "name": "",
          "type": "address"
        }
      ],
      "stateMutability": "pure",
      "type": "function"
    },
    {
      "inputs": [
        {
          "internalType": "address",
          "name": "",
          "type": "address"
        }
      ],
      "name": "workerToWork",
      "outputs": [
        {
          "internalType": "uint256",
          "name": "id",
          "type": "uint256"
        },
        {
          "internalType": "uint256",
          "name": "gram",
          "type": "uint256"
        }
      ],
      "stateMutability": "view",
      "type": "function"
    }
  ],
  "bytecode": "0x60806040523480156200001157600080fd5b506040518060400160405280600c81526020017f53414c56415245546f6b656e00000000000000000000000000000000000000008152506040518060400160405280600781526020017f53414c564152450000000000000000000000000000000000000000000000000081525081600390816200008f9190620018ef565b508060049081620000a19190620018ef565b505050620000b4620000d660201b60201c565b620000d03069d3c21bcecceda1000000620014fe60201b60201c565b62001af1565b600660405180610160016040528060008152602001600073ffffffffffffffffffffffffffffffffffffffff168152602001600073ffffffffffffffffffffffffffffffffffffffff16815260200160405180602001604052806000815250815260200160405180602001604052806000815250815260200160008152602001600081526020016000815260200160008152602001600081526020016040518060a001604052806000815260200160405180602001604052806000815250815260200160405180602001604052806000815250815260200160008152602001600081525081525090806001815401808255809150506001900390600052602060002090600f02016000909190919091506000820151816000015560208201518160010160006101000a81548173ffffffffffffffffffffffffffffffffffffffff021916908373ffffffffffffffffffffffffffffffffffffffff16021790555060408201518160020160006101000a81548173ffffffffffffffffffffffffffffffffffffffff021916908373ffffffffffffffffffffffffffffffffffffffff1602179055506060820151816003019081620002959190620018ef565b506080820151816004019081620002ad9190620018ef565b5060a0820151816005015560c0820151816006015560e082015181600701556101008201518160080155610120820151816009015561014082015181600a016000820151816000015560208201518160010190816200030d9190620018ef565b506040820151816002019081620003259190620018ef565b50606082015181600301556080820151816004015550505050600660405180610160016040528060018152602001735b38da6a701c568545dcfcb03fcb875f56beddc473ffffffffffffffffffffffffffffffffffffffff168152602001600073ffffffffffffffffffffffffffffffffffffffff1681526020016040518060400160405280601381526020017fe6b88be8b0b720e3838fe38381e585ace5898d00000000000000000000000000815250815260200160405180608001604052806058815260200162004372605891398152602001660cab1b9307254681526020016631a1eac67e3ce881526020016127108152602001614e208152602001600081526020016040518060a00160405280600081526020016040518060400160405280601281526020017fe6b88be8b0b7e6b885e68e83e5b7a5e5a0b4000000000000000000000000000081525081526020016040518060600160405280603681526020016200433c603691398152602001660caaa9cf532fc881526020016631a23b2c57916381525081525090806001815401808255809150506001900390600052602060002090600f02016000909190919091506000820151816000015560208201518160010160006101000a81548173ffffffffffffffffffffffffffffffffffffffff021916908373ffffffffffffffffffffffffffffffffffffffff16021790555060408201518160020160006101000a81548173ffffffffffffffffffffffffffffffffffffffff021916908373ffffffffffffffffffffffffffffffffffffffff16021790555060608201518160030190816200058a9190620018ef565b506080820151816004019081620005a29190620018ef565b5060a0820151816005015560c0820151816006015560e082015181600701556101008201518160080155610120820151816009015561014082015181600a01600082015181600001556020820151816001019081620006029190620018ef565b5060408201518160020190816200061a9190620018ef565b50606082015181600301556080820151816004015550505050600660405180610160016040528060028152602001735b38da6a701c568545dcfcb03fcb875f56beddc473ffffffffffffffffffffffffffffffffffffffff168152602001600073ffffffffffffffffffffffffffffffffffffffff1681526020016040518060400160405280601481526020017f536869627579612d6b7520416464726573732032000000000000000000000000815250815260200160405180608001604052806058815260200162004372605891398152602001660cab2540edc4fc81526020016631a1fb81ace0048152602001612af88152602001614e208152602001600081526020016040518060a00160405280600081526020016040518060400160405280601281526020017fe6b88be8b0b7e6b885e68e83e5b7a5e5a0b4000000000000000000000000000081525081526020016040518060600160405280603681526020016200433c603691398152602001660caaa9cf532fc881526020016631a23b2c57916381525081525090806001815401808255809150506001900390600052602060002090600f02016000909190919091506000820151816000015560208201518160010160006101000a81548173ffffffffffffffffffffffffffffffffffffffff021916908373ffffffffffffffffffffffffffffffffffffffff16021790555060408201518160020160006101000a81548173ffffffffffffffffffffffffffffffffffffffff021916908373ffffffffffffffffffffffffffffffffffffffff16021790555060608201518160030190816200087f9190620018ef565b506080820151816004019081620008979190620018ef565b5060a0820151816005015560c0820151816006015560e082015181600701556101008201518160080155610120820151816009015561014082015181600a01600082015181600001556020820151816001019081620008f79190620018ef565b5060408201518160020190816200090f9190620018ef565b50606082015181600301556080820151816004015550505050600660405180610160016040528060038152602001735b38da6a701c568545dcfcb03fcb875f56beddc473ffffffffffffffffffffffffffffffffffffffff168152602001600073ffffffffffffffffffffffffffffffffffffffff1681526020016040518060400160405280601481526020017f536869627579612d6b7520416464726573732033000000000000000000000000815250815260200160405180608001604052806058815260200162004372605891398152602001660cab1c1040027981526020016631a1f6c4a8dd4081526020016104b08152602001614e208152602001600081526020016040518060a00160405280600081526020016040518060400160405280601281526020017fe6b88be8b0b7e6b885e68e83e5b7a5e5a0b4000000000000000000000000000081525081526020016040518060600160405280603681526020016200433c603691398152602001660caaa9cf532fc881526020016631a23b2c57916381525081525090806001815401808255809150506001900390600052602060002090600f02016000909190919091506000820151816000015560208201518160010160006101000a81548173ffffffffffffffffffffffffffffffffffffffff021916908373ffffffffffffffffffffffffffffffffffffffff16021790555060408201518160020160006101000a81548173ffffffffffffffffffffffffffffffffffffffff021916908373ffffffffffffffffffffffffffffffffffffffff160217905550606082015181600301908162000b749190620018ef565b50608082015181600401908162000b8c9190620018ef565b5060a0820151816005015560c0820151816006015560e082015181600701556101008201518160080155610120820151816009015561014082015181600a0160008201518160000155602082015181600101908162000bec9190620018ef565b50604082015181600201908162000c049190620018ef565b50606082015181600301556080820151816004015550505050600660405180610160016040528060048152602001735b38da6a701c568545dcfcb03fcb875f56beddc473ffffffffffffffffffffffffffffffffffffffff168152602001600073ffffffffffffffffffffffffffffffffffffffff1681526020016040518060400160405280601481526020017f536869627579612d6b7520416464726573732034000000000000000000000000815250815260200160405180608001604052806058815260200162004372605891398152602001660cab283bf50d8181526020016631a19f2f6f5e4f81526020016132c88152602001614e208152602001600081526020016040518060a00160405280600081526020016040518060400160405280601281526020017fe6b88be8b0b7e6b885e68e83e5b7a5e5a0b4000000000000000000000000000081525081526020016040518060600160405280603681526020016200433c603691398152602001660caaa9cf532fc881526020016631a23b2c57916381525081525090806001815401808255809150506001900390600052602060002090600f02016000909190919091506000820151816000015560208201518160010160006101000a81548173ffffffffffffffffffffffffffffffffffffffff021916908373ffffffffffffffffffffffffffffffffffffffff16021790555060408201518160020160006101000a81548173ffffffffffffffffffffffffffffffffffffffff021916908373ffffffffffffffffffffffffffffffffffffffff160217905550606082015181600301908162000e699190620018ef565b50608082015181600401908162000e819190620018ef565b5060a0820151816005015560c0820151816006015560e082015181600701556101008201518160080155610120820151816009015561014082015181600a0160008201518160000155602082015181600101908162000ee19190620018ef565b50604082015181600201908162000ef99190620018ef565b50606082015181600301556080820151816004015550505050600660405180610160016040528060058152602001735b38da6a701c568545dcfcb03fcb875f56beddc473ffffffffffffffffffffffffffffffffffffffff168152602001600073ffffffffffffffffffffffffffffffffffffffff1681526020016040518060400160405280601481526020017f536869627579612d6b7520416464726573732035000000000000000000000000815250815260200160405180608001604052806058815260200162004372605891398152602001660cab0d887350cd81526020016631a19ff3152d3881526020016136b08152602001614e208152602001600081526020016040518060a00160405280600081526020016040518060400160405280601281526020017fe6b88be8b0b7e6b885e68e83e5b7a5e5a0b4000000000000000000000000000081525081526020016040518060600160405280603681526020016200433c603691398152602001660caaa9cf532fc881526020016631a23b2c57916381525081525090806001815401808255809150506001900390600052602060002090600f02016000909190919091506000820151816000015560208201518160010160006101000a81548173ffffffffffffffffffffffffffffffffffffffff021916908373ffffffffffffffffffffffffffffffffffffffff16021790555060408201518160020160006101000a81548173ffffffffffffffffffffffffffffffffffffffff021916908373ffffffffffffffffffffffffffffffffffffffff16021790555060608201518160030190816200115e9190620018ef565b506080820151816004019081620011769190620018ef565b5060a0820151816005015560c0820151816006015560e082015181600701556101008201518160080155610120820151816009015561014082015181600a01600082015181600001556020820151816001019081620011d69190620018ef565b506040820151816002019081620011ee9190620018ef565b50606082015181600301556080820151816004015550505050600660405180610160016040528060068152602001735b38da6a701c568545dcfcb03fcb875f56beddc473ffffffffffffffffffffffffffffffffffffffff168152602001600073ffffffffffffffffffffffffffffffffffffffff1681526020016040518060400160405280601481526020017f536869627579612d6b7520416464726573732036000000000000000000000000815250815260200160405180608001604052806058815260200162004372605891398152602001660cab133e9e3c6381526020016631a1ccd59441c88152602001613a988152602001614e208152602001600081526020016040518060a00160405280600081526020016040518060400160405280601281526020017fe6b88be8b0b7e6b885e68e83e5b7a5e5a0b4000000000000000000000000000081525081526020016040518060600160405280603681526020016200433c603691398152602001660caaa9cf532fc881526020016631a23b2c57916381525081525090806001815401808255809150506001900390600052602060002090600f02016000909190919091506000820151816000015560208201518160010160006101000a81548173ffffffffffffffffffffffffffffffffffffffff021916908373ffffffffffffffffffffffffffffffffffffffff16021790555060408201518160020160006101000a81548173ffffffffffffffffffffffffffffffffffffffff021916908373ffffffffffffffffffffffffffffffffffffffff1602179055506060820151816003019081620014539190620018ef565b5060808201518160040190816200146b9190620018ef565b5060a0820151816005015560c0820151816006015560e082015181600701556101008201518160080155610120820151816009015561014082015181600a01600082015181600001556020820151816001019081620014cb9190620018ef565b506040820151816002019081620014e39190620018ef565b50606082015181600301556080820151816004015550505050565b600073ffffffffffffffffffffffffffffffffffffffff168273ffffffffffffffffffffffffffffffffffffffff160362001570576040517f08c379a0000000000000000000000000000000000000000000000000000000008152600401620015679062001a37565b60405180910390fd5b62001584600083836200166b60201b60201c565b806002600082825462001598919062001a88565b92505081905550806000808473ffffffffffffffffffffffffffffffffffffffff1673ffffffffffffffffffffffffffffffffffffffff168152602001908152602001600020600082825401925050819055508173ffffffffffffffffffffffffffffffffffffffff16600073ffffffffffffffffffffffffffffffffffffffff167fddf252ad1be2c89b69c2b068fc378daa952ba7f163c4a11628f55a4df523b3ef836040516200164b919062001ad4565b60405180910390a362001667600083836200167060201b60201c565b5050565b505050565b505050565b600081519050919050565b7f4e487b7100000000000000000000000000000000000000000000000000000000600052604160045260246000fd5b7f4e487b7100000000000000000000000000000000000000000000000000000000600052602260045260246000fd5b60006002820490506001821680620016f757607f821691505b6020821081036200170d576200170c620016af565b5b50919050565b60008190508160005260206000209050919050565b60006020601f8301049050919050565b600082821b905092915050565b600060088302620017777fffffffffffffffffffffffffffffffffffffffffffffffffffffffffffffffff8262001738565b62001783868362001738565b95508019841693508086168417925050509392505050565b6000819050919050565b6000819050919050565b6000620017d0620017ca620017c4846200179b565b620017a5565b6200179b565b9050919050565b6000819050919050565b620017ec83620017af565b62001804620017fb82620017d7565b84845462001745565b825550505050565b600090565b6200181b6200180c565b62001828818484620017e1565b505050565b5b8181101562001850576200184460008262001811565b6001810190506200182e565b5050565b601f8211156200189f57620018698162001713565b620018748462001728565b8101602085101562001884578190505b6200189c620018938562001728565b8301826200182d565b50505b505050565b600082821c905092915050565b6000620018c460001984600802620018a4565b1980831691505092915050565b6000620018df8383620018b1565b9150826002028217905092915050565b620018fa8262001675565b67ffffffffffffffff81111562001916576200191562001680565b5b620019228254620016de565b6200192f82828562001854565b600060209050601f83116001811462001967576000841562001952578287015190505b6200195e8582620018d1565b865550620019ce565b601f198416620019778662001713565b60005b82811015620019a1578489015182556001820191506020850194506020810190506200197a565b86831015620019c15784890151620019bd601f891682620018b1565b8355505b6001600288020188555050505b505050505050565b600082825260208201905092915050565b7f45524332303a206d696e7420746f20746865207a65726f206164647265737300600082015250565b600062001a1f601f83620019d6565b915062001a2c82620019e7565b602082019050919050565b6000602082019050818103600083015262001a528162001a10565b9050919050565b7f4e487b7100000000000000000000000000000000000000000000000000000000600052601160045260246000fd5b600062001a95826200179b565b915062001aa2836200179b565b925082820190508082111562001abd5762001abc62001a59565b5b92915050565b62001ace816200179b565b82525050565b600060208201905062001aeb600083018462001ac3565b92915050565b61283b8062001b016000396000f3fe608060405234801561001057600080fd5b506004361061012c5760003560e01c806370a08231116100ad578063a457c2d711610071578063a457c2d71461036c578063a9059cbb1461039c578063d851ba9e146103cc578063daca6f78146103fc578063dd62ed3e1461042c5761012c565b806370a082311461028d578063760fe9be146102bd57806378350073146102ee5780638b283a1a1461031e57806395d89b411461034e5761012c565b806323b872dd116100f457806323b872dd146101d7578063313ce5671461020757806337d7948d1461022557806339509351146102415780635e0f6fb8146102715761012c565b806306fdde0314610131578063095ea7b31461014f578063107bd86c1461017f57806318160ddd1461019b5780631ece8337146101b9575b600080fd5b61013961045c565b60405161014691906117bb565b60405180910390f35b61016960048036038101906101649190611885565b6104ee565b60405161017691906118e0565b60405180910390f35b610199600480360381019061019491906118fb565b610511565b005b6101a361053f565b6040516101b0919061194a565b60405180910390f35b6101c1610549565b6040516101ce9190611c09565b60405180910390f35b6101f160048036038101906101ec9190611c2b565b61090b565b6040516101fe91906118e0565b60405180910390f35b61020f61093a565b60405161021c9190611c9a565b60405180910390f35b61023f600480360381019061023a9190611e20565b610943565b005b61025b60048036038101906102569190611885565b610a2a565b60405161026891906118e0565b60405180910390f35b61028b60048036038101906102869190611ea3565b610a61565b005b6102a760048036038101906102a29190611f12565b610c11565b6040516102b4919061194a565b60405180910390f35b6102d760048036038101906102d29190611f12565b610c59565b6040516102e5929190611f3f565b60405180910390f35b61030860048036038101906103039190611f12565b610c7d565b6040516103159190611f97565b60405180910390f35b61033860048036038101906103339190611f12565b610cea565b604051610345919061194a565b60405180910390f35b610356610d02565b60405161036391906117bb565b60405180910390f35b61038660048036038101906103819190611885565b610d94565b60405161039391906118e0565b60405180910390f35b6103b660048036038101906103b19190611885565b610e0b565b6040516103c391906118e0565b60405180910390f35b6103e660048036038101906103e19190611f12565b610e2e565b6040516103f39190611f97565b60405180910390f35b61041660048036038101906104119190611fb2565b610e9b565b604051610423919061201d565b60405180910390f35b61044660048036038101906104419190612038565b610eb7565b604051610453919061194a565b60405180910390f35b60606003805461046b906120a7565b80601f0160208091040260200160405190810160405280929190818152602001828054610497906120a7565b80156104e45780601f106104b9576101008083540402835291602001916104e4565b820191906000526020600020905b8154815290600101906020018083116104c757829003601f168201915b5050505050905090565b6000806104f9610f3e565b9050610506818585610f46565b600191505092915050565b8160068281548110610526576105256120d8565b5b90600052602060002090600f0201600701819055505050565b6000600254905090565b60606006805480602002602001604051908101604052809291908181526020016000905b8282101561090257838290600052602060002090600f020160405180610160016040529081600082015481526020016001820160009054906101000a900473ffffffffffffffffffffffffffffffffffffffff1673ffffffffffffffffffffffffffffffffffffffff1673ffffffffffffffffffffffffffffffffffffffff1681526020016002820160009054906101000a900473ffffffffffffffffffffffffffffffffffffffff1673ffffffffffffffffffffffffffffffffffffffff1673ffffffffffffffffffffffffffffffffffffffff168152602001600382018054610657906120a7565b80601f0160208091040260200160405190810160405280929190818152602001828054610683906120a7565b80156106d05780601f106106a5576101008083540402835291602001916106d0565b820191906000526020600020905b8154815290600101906020018083116106b357829003601f168201915b505050505081526020016004820180546106e9906120a7565b80601f0160208091040260200160405190810160405280929190818152602001828054610715906120a7565b80156107625780601f1061073757610100808354040283529160200191610762565b820191906000526020600020905b81548152906001019060200180831161074557829003601f168201915b505050505081526020016005820154815260200160068201548152602001600782015481526020016008820154815260200160098201548152602001600a82016040518060a0016040529081600082015481526020016001820180546107c7906120a7565b80601f01602080910402602001604051908101604052809291908181526020018280546107f3906120a7565b80156108405780601f1061081557610100808354040283529160200191610840565b820191906000526020600020905b81548152906001019060200180831161082357829003601f168201915b50505050508152602001600282018054610859906120a7565b80601f0160208091040260200160405190810160405280929190818152602001828054610885906120a7565b80156108d25780601f106108a7576101008083540402835291602001916108d2565b820191906000526020600020905b8154815290600101906020018083116108b557829003601f168201915b5050505050815260200160038201548152602001600482015481525050815250508152602001906001019061056d565b50505050905090565b600080610916610f3e565b905061092385828561110f565b61092e85858561119b565b60019150509392505050565b60006012905090565b600061094f8484610e9b565b905084600760008373ffffffffffffffffffffffffffffffffffffffff1673ffffffffffffffffffffffffffffffffffffffff1681526020019081526020016000206001018190555081600760008373ffffffffffffffffffffffffffffffffffffffff1673ffffffffffffffffffffffffffffffffffffffff16815260200190815260200160002060000181905550818173ffffffffffffffffffffffffffffffffffffffff167f8fc01ae8a764e12128400c3f6f8d147880b3e60e4855fa8f7c3dff63dd0efdd060405160405180910390a35050505050565b600080610a35610f3e565b9050610a56818585610a478589610eb7565b610a519190612136565b610f46565b600191505092915050565b6000610a6d8383610e9b565b90506000600760008373ffffffffffffffffffffffffffffffffffffffff1673ffffffffffffffffffffffffffffffffffffffff16815260200190815260200160002060010154905084600a82610ac49190612199565b82610acf91906121ca565b1015610af457610af33083670de0b6b3a764000084610aee91906121fe565b61119b565b5b6000600760008473ffffffffffffffffffffffffffffffffffffffff1673ffffffffffffffffffffffffffffffffffffffff168152602001908152602001600020600101819055506000600760008473ffffffffffffffffffffffffffffffffffffffff1673ffffffffffffffffffffffffffffffffffffffff16815260200190815260200160002060000181905550600760008373ffffffffffffffffffffffffffffffffffffffff1673ffffffffffffffffffffffffffffffffffffffff168152602001908152602001600020600001548273ffffffffffffffffffffffffffffffffffffffff167fcd8cdd85d8680621d49962288f1fffb4a1c542431923fe9d6e7afc39d8e55d8a60405160405180910390a35050505050565b60008060008373ffffffffffffffffffffffffffffffffffffffff1673ffffffffffffffffffffffffffffffffffffffff168152602001908152602001600020549050919050565b60076020528060005260406000206000915090508060000154908060010154905082565b610c85611711565b600760008373ffffffffffffffffffffffffffffffffffffffff1673ffffffffffffffffffffffffffffffffffffffff168152602001908152602001600020604051806040016040529081600082015481526020016001820154815250509050919050565b60056020528060005260406000206000915090505481565b606060048054610d11906120a7565b80601f0160208091040260200160405190810160405280929190818152602001828054610d3d906120a7565b8015610d8a5780601f10610d5f57610100808354040283529160200191610d8a565b820191906000526020600020905b815481529060010190602001808311610d6d57829003601f168201915b5050505050905090565b600080610d9f610f3e565b90506000610dad8286610eb7565b905083811015610df2576040517f08c379a0000000000000000000000000000000000000000000000000000000008152600401610de9906122b2565b60405180910390fd5b610dff8286868403610f46565b60019250505092915050565b600080610e16610f3e565b9050610e2381858561119b565b600191505092915050565b610e36611711565b600760008373ffffffffffffffffffffffffffffffffffffffff1673ffffffffffffffffffffffffffffffffffffffff168152602001908152602001600020604051806040016040529081600082015481526020016001820154815250509050919050565b6000610eaf610ea984611411565b83611447565b905092915050565b6000600160008473ffffffffffffffffffffffffffffffffffffffff1673ffffffffffffffffffffffffffffffffffffffff16815260200190815260200160002060008373ffffffffffffffffffffffffffffffffffffffff1673ffffffffffffffffffffffffffffffffffffffff16815260200190815260200160002054905092915050565b600033905090565b600073ffffffffffffffffffffffffffffffffffffffff168373ffffffffffffffffffffffffffffffffffffffff1603610fb5576040517f08c379a0000000000000000000000000000000000000000000000000000000008152600401610fac90612344565b60405180910390fd5b600073ffffffffffffffffffffffffffffffffffffffff168273ffffffffffffffffffffffffffffffffffffffff1603611024576040517f08c379a000000000000000000000000000000000000000000000000000000000815260040161101b906123d6565b60405180910390fd5b80600160008573ffffffffffffffffffffffffffffffffffffffff1673ffffffffffffffffffffffffffffffffffffffff16815260200190815260200160002060008473ffffffffffffffffffffffffffffffffffffffff1673ffffffffffffffffffffffffffffffffffffffff168152602001908152602001600020819055508173ffffffffffffffffffffffffffffffffffffffff168373ffffffffffffffffffffffffffffffffffffffff167f8c5be1e5ebec7d5bd14f71427d1e84f3dd0314c0f7b2291e5b200ac8c7c3b92583604051611102919061194a565b60405180910390a3505050565b600061111b8484610eb7565b90507fffffffffffffffffffffffffffffffffffffffffffffffffffffffffffffffff81146111955781811015611187576040517f08c379a000000000000000000000000000000000000000000000000000000000815260040161117e90612442565b60405180910390fd5b6111948484848403610f46565b5b50505050565b600073ffffffffffffffffffffffffffffffffffffffff168373ffffffffffffffffffffffffffffffffffffffff160361120a576040517f08c379a0000000000000000000000000000000000000000000000000000000008152600401611201906124d4565b60405180910390fd5b600073ffffffffffffffffffffffffffffffffffffffff168273ffffffffffffffffffffffffffffffffffffffff1603611279576040517f08c379a000000000000000000000000000000000000000000000000000000000815260040161127090612566565b60405180910390fd5b61128483838361146e565b60008060008573ffffffffffffffffffffffffffffffffffffffff1673ffffffffffffffffffffffffffffffffffffffff1681526020019081526020016000205490508181101561130a576040517f08c379a0000000000000000000000000000000000000000000000000000000008152600401611301906125f8565b60405180910390fd5b8181036000808673ffffffffffffffffffffffffffffffffffffffff1673ffffffffffffffffffffffffffffffffffffffff16815260200190815260200160002081905550816000808573ffffffffffffffffffffffffffffffffffffffff1673ffffffffffffffffffffffffffffffffffffffff168152602001908152602001600020600082825401925050819055508273ffffffffffffffffffffffffffffffffffffffff168473ffffffffffffffffffffffffffffffffffffffff167fddf252ad1be2c89b69c2b068fc378daa952ba7f163c4a11628f55a4df523b3ef846040516113f8919061194a565b60405180910390a361140b848484611473565b50505050565b60007f19457468657265756d205369676e6564204d6573736167653a0a33320000000060005281601c52603c6000209050919050565b60008060006114568585611478565b91509150611463816114c9565b819250505092915050565b505050565b505050565b60008060418351036114b95760008060006020860151925060408601519150606086015160001a90506114ad8782858561162f565b945094505050506114c2565b60006002915091505b9250929050565b600060048111156114dd576114dc612618565b5b8160048111156114f0576114ef612618565b5b031561162c576001600481111561150a57611509612618565b5b81600481111561151d5761151c612618565b5b0361155d576040517f08c379a000000000000000000000000000000000000000000000000000000000815260040161155490612693565b60405180910390fd5b6002600481111561157157611570612618565b5b81600481111561158457611583612618565b5b036115c4576040517f08c379a00000000000000000000000000000000000000000000000000000000081526004016115bb906126ff565b60405180910390fd5b600360048111156115d8576115d7612618565b5b8160048111156115eb576115ea612618565b5b0361162b576040517f08c379a000000000000000000000000000000000000000000000000000000000815260040161162290612791565b60405180910390fd5b5b50565b6000807f7fffffffffffffffffffffffffffffff5d576e7357a4501ddfe92f46681b20a08360001c111561166a576000600391509150611708565b60006001878787876040516000815260200160405260405161168f94939291906127c0565b6020604051602081039080840390855afa1580156116b1573d6000803e3d6000fd5b505050602060405103519050600073ffffffffffffffffffffffffffffffffffffffff168173ffffffffffffffffffffffffffffffffffffffff16036116ff57600060019250925050611708565b80600092509250505b94509492505050565b604051806040016040528060008152602001600081525090565b600081519050919050565b600082825260208201905092915050565b60005b8381101561176557808201518184015260208101905061174a565b60008484015250505050565b6000601f19601f8301169050919050565b600061178d8261172b565b6117978185611736565b93506117a7818560208601611747565b6117b081611771565b840191505092915050565b600060208201905081810360008301526117d58184611782565b905092915050565b6000604051905090565b600080fd5b600080fd5b600073ffffffffffffffffffffffffffffffffffffffff82169050919050565b600061181c826117f1565b9050919050565b61182c81611811565b811461183757600080fd5b50565b60008135905061184981611823565b92915050565b6000819050919050565b6118628161184f565b811461186d57600080fd5b50565b60008135905061187f81611859565b92915050565b6000806040838503121561189c5761189b6117e7565b5b60006118aa8582860161183a565b92505060206118bb85828601611870565b9150509250929050565b60008115159050919050565b6118da816118c5565b82525050565b60006020820190506118f560008301846118d1565b92915050565b60008060408385031215611912576119116117e7565b5b600061192085828601611870565b925050602061193185828601611870565b9150509250929050565b6119448161184f565b82525050565b600060208201905061195f600083018461193b565b92915050565b600081519050919050565b600082825260208201905092915050565b6000819050602082019050919050565b61199a8161184f565b82525050565b6119a981611811565b82525050565b600082825260208201905092915050565b60006119cb8261172b565b6119d581856119af565b93506119e5818560208601611747565b6119ee81611771565b840191505092915050565b600060a083016000830151611a116000860182611991565b5060208301518482036020860152611a2982826119c0565b91505060408301518482036040860152611a4382826119c0565b9150506060830151611a586060860182611991565b506080830151611a6b6080860182611991565b508091505092915050565b600061016083016000830151611a8f6000860182611991565b506020830151611aa260208601826119a0565b506040830151611ab560408601826119a0565b5060608301518482036060860152611acd82826119c0565b91505060808301518482036080860152611ae782826119c0565b91505060a0830151611afc60a0860182611991565b5060c0830151611b0f60c0860182611991565b5060e0830151611b2260e0860182611991565b50610100830151611b37610100860182611991565b50610120830151611b4c610120860182611991565b50610140830151848203610140860152611b6682826119f9565b9150508091505092915050565b6000611b7f8383611a76565b905092915050565b6000602082019050919050565b6000611b9f82611965565b611ba98185611970565b935083602082028501611bbb85611981565b8060005b85811015611bf75784840389528151611bd88582611b73565b9450611be383611b87565b925060208a01995050600181019050611bbf565b50829750879550505050505092915050565b60006020820190508181036000830152611c238184611b94565b905092915050565b600080600060608486031215611c4457611c436117e7565b5b6000611c528682870161183a565b9350506020611c638682870161183a565b9250506040611c7486828701611870565b9150509250925092565b600060ff82169050919050565b611c9481611c7e565b82525050565b6000602082019050611caf6000830184611c8b565b92915050565b6000819050919050565b611cc881611cb5565b8114611cd357600080fd5b50565b600081359050611ce581611cbf565b92915050565b600080fd5b600080fd5b7f4e487b7100000000000000000000000000000000000000000000000000000000600052604160045260246000fd5b611d2d82611771565b810181811067ffffffffffffffff82111715611d4c57611d4b611cf5565b5b80604052505050565b6000611d5f6117dd565b9050611d6b8282611d24565b919050565b600067ffffffffffffffff821115611d8b57611d8a611cf5565b5b611d9482611771565b9050602081019050919050565b82818337600083830152505050565b6000611dc3611dbe84611d70565b611d55565b905082815260208101848484011115611ddf57611dde611cf0565b5b611dea848285611da1565b509392505050565b600082601f830112611e0757611e06611ceb565b5b8135611e17848260208601611db0565b91505092915050565b60008060008060808587031215611e3a57611e396117e7565b5b6000611e4887828801611870565b9450506020611e5987828801611cd6565b935050604085013567ffffffffffffffff811115611e7a57611e796117ec565b5b611e8687828801611df2565b9250506060611e9787828801611870565b91505092959194509250565b600080600060608486031215611ebc57611ebb6117e7565b5b6000611eca86828701611870565b9350506020611edb86828701611cd6565b925050604084013567ffffffffffffffff811115611efc57611efb6117ec565b5b611f0886828701611df2565b9150509250925092565b600060208284031215611f2857611f276117e7565b5b6000611f368482850161183a565b91505092915050565b6000604082019050611f54600083018561193b565b611f61602083018461193b565b9392505050565b604082016000820151611f7e6000850182611991565b506020820151611f916020850182611991565b50505050565b6000604082019050611fac6000830184611f68565b92915050565b60008060408385031215611fc957611fc86117e7565b5b6000611fd785828601611cd6565b925050602083013567ffffffffffffffff811115611ff857611ff76117ec565b5b61200485828601611df2565b9150509250929050565b61201781611811565b82525050565b6000602082019050612032600083018461200e565b92915050565b6000806040838503121561204f5761204e6117e7565b5b600061205d8582860161183a565b925050602061206e8582860161183a565b9150509250929050565b7f4e487b7100000000000000000000000000000000000000000000000000000000600052602260045260246000fd5b600060028204905060018216806120bf57607f821691505b6020821081036120d2576120d1612078565b5b50919050565b7f4e487b7100000000000000000000000000000000000000000000000000000000600052603260045260246000fd5b7f4e487b7100000000000000000000000000000000000000000000000000000000600052601160045260246000fd5b60006121418261184f565b915061214c8361184f565b925082820190508082111561216457612163612107565b5b92915050565b7f4e487b7100000000000000000000000000000000000000000000000000000000600052601260045260246000fd5b60006121a48261184f565b91506121af8361184f565b9250826121bf576121be61216a565b5b828204905092915050565b60006121d58261184f565b91506121e08361184f565b92508282039050818111156121f8576121f7612107565b5b92915050565b60006122098261184f565b91506122148361184f565b92508282026122228161184f565b9150828204841483151761223957612238612107565b5b5092915050565b7f45524332303a2064656372656173656420616c6c6f77616e63652062656c6f7760008201527f207a65726f000000000000000000000000000000000000000000000000000000602082015250565b600061229c602583611736565b91506122a782612240565b604082019050919050565b600060208201905081810360008301526122cb8161228f565b9050919050565b7f45524332303a20617070726f76652066726f6d20746865207a65726f2061646460008201527f7265737300000000000000000000000000000000000000000000000000000000602082015250565b600061232e602483611736565b9150612339826122d2565b604082019050919050565b6000602082019050818103600083015261235d81612321565b9050919050565b7f45524332303a20617070726f766520746f20746865207a65726f20616464726560008201527f7373000000000000000000000000000000000000000000000000000000000000602082015250565b60006123c0602283611736565b91506123cb82612364565b604082019050919050565b600060208201905081810360008301526123ef816123b3565b9050919050565b7f45524332303a20696e73756666696369656e7420616c6c6f77616e6365000000600082015250565b600061242c601d83611736565b9150612437826123f6565b602082019050919050565b6000602082019050818103600083015261245b8161241f565b9050919050565b7f45524332303a207472616e736665722066726f6d20746865207a65726f20616460008201527f6472657373000000000000000000000000000000000000000000000000000000602082015250565b60006124be602583611736565b91506124c982612462565b604082019050919050565b600060208201905081810360008301526124ed816124b1565b9050919050565b7f45524332303a207472616e7366657220746f20746865207a65726f206164647260008201527f6573730000000000000000000000000000000000000000000000000000000000602082015250565b6000612550602383611736565b915061255b826124f4565b604082019050919050565b6000602082019050818103600083015261257f81612543565b9050919050565b7f45524332303a207472616e7366657220616d6f756e742065786365656473206260008201527f616c616e63650000000000000000000000000000000000000000000000000000602082015250565b60006125e2602683611736565b91506125ed82612586565b604082019050919050565b60006020820190508181036000830152612611816125d5565b9050919050565b7f4e487b7100000000000000000000000000000000000000000000000000000000600052602160045260246000fd5b7f45434453413a20696e76616c6964207369676e61747572650000000000000000600082015250565b600061267d601883611736565b915061268882612647565b602082019050919050565b600060208201905081810360008301526126ac81612670565b9050919050565b7f45434453413a20696e76616c6964207369676e6174757265206c656e67746800600082015250565b60006126e9601f83611736565b91506126f4826126b3565b602082019050919050565b60006020820190508181036000830152612718816126dc565b9050919050565b7f45434453413a20696e76616c6964207369676e6174757265202773272076616c60008201527f7565000000000000000000000000000000000000000000000000000000000000602082015250565b600061277b602283611736565b91506127868261271f565b604082019050919050565b600060208201905081810360008301526127aa8161276e565b9050919050565b6127ba81611cb5565b82525050565b60006080820190506127d560008301876127b1565b6127e26020830186611c8b565b6127ef60408301856127b1565b6127fc60608301846127b1565b9594505050505056fea26469706673582212202c55ad8ed4cfd48b30ab120af719c948105d326ebe22cd42924d39f4aa11c1c564736f6c63430008120033e380923135302d3030313120e69db1e4baace983bde6b88be8b0b7e58cbae69db1efbc91e4b881e79baeefbc93efbc95e28892efbc9168747470733a2f2f63646e2e646973636f72646170702e636f6d2f6174746163686d656e74732f313038373335343834353637353132363738362f313131353634353633393035333830373733382f696d6167652e706e67",
  "linkReferences": {},
  "deployedLinkReferences": {}
}