{
  "_format": "hh-sol-artifact-1",
  "contractName": "SALVARE",
  "sourceName": "contracts/SALVARE.sol",
  "abi": [
    {
      "inputs": [],
      "stateMutability": "nonpayable",
      "type": "constructor"
    },
    {
      "anonymous": false,
      "inputs": [
        {
          "indexed": true,
          "internalType": "address",
          "name": "owner",
          "type": "address"
        },
        {
          "indexed": true,
          "internalType": "address",
          "name": "spender",
          "type": "address"
        },
        {
          "indexed": false,
          "internalType": "uint256",
          "name": "value",
          "type": "uint256"
        }
      ],
      "name": "Approval",
      "type": "event"
    },
    {
      "anonymous": false,
      "inputs": [
        {
          "indexed": true,
          "internalType": "address",
          "name": "worker",
          "type": "address"
        },
        {
          "indexed": true,
          "internalType": "uint256",
          "name": "id",
          "type": "uint256"
        }
      ],
      "name": "StartWork",
      "type": "event"
    },
    {
      "anonymous": false,
      "inputs": [
        {
          "indexed": true,
          "internalType": "address",
          "name": "from",
          "type": "address"
        },
        {
          "indexed": true,
          "internalType": "address",
          "name": "to",
          "type": "address"
        },
        {
          "indexed": false,
          "internalType": "uint256",
          "name": "value",
          "type": "uint256"
        }
      ],
      "name": "Transfer",
      "type": "event"
    },
    {
      "inputs": [
        {
          "internalType": "address",
          "name": "owner",
          "type": "address"
        },
        {
          "internalType": "address",
          "name": "spender",
          "type": "address"
        }
      ],
      "name": "allowance",
      "outputs": [
        {
          "internalType": "uint256",
          "name": "",
          "type": "uint256"
        }
      ],
      "stateMutability": "view",
      "type": "function"
    },
    {
      "inputs": [
        {
          "internalType": "address",
          "name": "spender",
          "type": "address"
        },
        {
          "internalType": "uint256",
          "name": "amount",
          "type": "uint256"
        }
      ],
      "name": "approve",
      "outputs": [
        {
          "internalType": "bool",
          "name": "",
          "type": "bool"
        }
      ],
      "stateMutability": "nonpayable",
      "type": "function"
    },
    {
      "inputs": [
        {
          "internalType": "address",
          "name": "account",
          "type": "address"
        }
      ],
      "name": "balanceOf",
      "outputs": [
        {
          "internalType": "uint256",
          "name": "",
          "type": "uint256"
        }
      ],
      "stateMutability": "view",
      "type": "function"
    },
    {
      "inputs": [],
      "name": "decimals",
      "outputs": [
        {
          "internalType": "uint8",
          "name": "",
          "type": "uint8"
        }
      ],
      "stateMutability": "view",
      "type": "function"
    },
    {
      "inputs": [
        {
          "internalType": "address",
          "name": "spender",
          "type": "address"
        },
        {
          "internalType": "uint256",
          "name": "subtractedValue",
          "type": "uint256"
        }
      ],
      "name": "decreaseAllowance",
      "outputs": [
        {
          "internalType": "bool",
          "name": "",
          "type": "bool"
        }
      ],
      "stateMutability": "nonpayable",
      "type": "function"
    },
    {
      "inputs": [
        {
          "internalType": "uint256",
          "name": "actualWeight",
          "type": "uint256"
        },
        {
          "internalType": "bytes32",
          "name": "messageHash",
          "type": "bytes32"
        },
        {
          "internalType": "bytes",
          "name": "signature",
          "type": "bytes"
        }
      ],
      "name": "doneWork",
      "outputs": [],
      "stateMutability": "nonpayable",
      "type": "function"
    },
    {
      "inputs": [],
      "name": "getTrashCans",
      "outputs": [
        {
          "components": [
            {
              "internalType": "uint256",
              "name": "id",
              "type": "uint256"
            },
            {
              "internalType": "address",
              "name": "trashCanOwner",
              "type": "address"
            },
            {
              "internalType": "address",
              "name": "trashCan",
              "type": "address"
            },
            {
              "internalType": "string",
              "name": "trashCanLocationAddress",
              "type": "string"
            },
            {
              "internalType": "string",
              "name": "trashCanLocationImage",
              "type": "string"
            },
            {
              "internalType": "uint256",
              "name": "trashCanLatitude",
              "type": "uint256"
            },
            {
              "internalType": "uint256",
              "name": "trashCanLongitude",
              "type": "uint256"
            },
            {
              "internalType": "uint256",
              "name": "trashCanAmount",
              "type": "uint256"
            },
            {
              "internalType": "uint256",
              "name": "trashCanMaxAmount",
              "type": "uint256"
            },
            {
              "internalType": "uint256",
              "name": "trashCanReward",
              "type": "uint256"
            },
            {
              "components": [
                {
                  "internalType": "uint256",
                  "name": "id",
                  "type": "uint256"
                },
                {
                  "internalType": "string",
                  "name": "recyclingCenterName",
                  "type": "string"
                },
                {
                  "internalType": "string",
                  "name": "recyclingCenterLocationAddress",
                  "type": "string"
                },
                {
                  "internalType": "uint256",
                  "name": "recyclingCenterLatitude",
                  "type": "uint256"
                },
                {
                  "internalType": "uint256",
                  "name": "recyclingCenterLongitude",
                  "type": "uint256"
                }
              ],
              "internalType": "struct SALVARE.RecyclingCenter",
              "name": "recyclingCenter",
              "type": "tuple"
            }
          ],
          "internalType": "struct SALVARE.TrashCan[]",
          "name": "",
          "type": "tuple[]"
        }
      ],
      "stateMutability": "view",
      "type": "function"
    },
    {
      "inputs": [
        {
          "internalType": "address",
          "name": "target",
          "type": "address"
        }
      ],
      "name": "getWork",
      "outputs": [
        {
          "components": [
            {
              "internalType": "uint256",
              "name": "id",
              "type": "uint256"
            },
            {
              "internalType": "uint256",
              "name": "gram",
              "type": "uint256"
            }
          ],
          "internalType": "struct SALVARE.Work",
          "name": "",
          "type": "tuple"
        }
      ],
      "stateMutability": "view",
      "type": "function"
    },
    {
      "inputs": [
        {
          "internalType": "address",
          "name": "spender",
          "type": "address"
        },
        {
          "internalType": "uint256",
          "name": "addedValue",
          "type": "uint256"
        }
      ],
      "name": "increaseAllowance",
      "outputs": [
        {
          "internalType": "bool",
          "name": "",
          "type": "bool"
        }
      ],
      "stateMutability": "nonpayable",
      "type": "function"
    },
    {
      "inputs": [
        {
          "internalType": "address",
          "name": "worker",
          "type": "address"
        }
      ],
      "name": "isWorking",
      "outputs": [
        {
          "components": [
            {
              "internalType": "uint256",
              "name": "id",
              "type": "uint256"
            },
            {
              "internalType": "uint256",
              "name": "gram",
              "type": "uint256"
            }
          ],
          "internalType": "struct SALVARE.Work",
          "name": "",
          "type": "tuple"
        }
      ],
      "stateMutability": "view",
      "type": "function"
    },
    {
      "inputs": [],
      "name": "name",
      "outputs": [
        {
          "internalType": "string",
          "name": "",
          "type": "string"
        }
      ],
      "stateMutability": "view",
      "type": "function"
    },
    {
      "inputs": [
        {
          "internalType": "address",
          "name": "",
          "type": "address"
        }
      ],
      "name": "requesterBalances",
      "outputs": [
        {
          "internalType": "uint256",
          "name": "",
          "type": "uint256"
        }
      ],
      "stateMutability": "view",
      "type": "function"
    },
    {
      "inputs": [
        {
          "internalType": "uint256",
          "name": "_newAmount",
          "type": "uint256"
        },
        {
          "internalType": "uint256",
          "name": "id",
          "type": "uint256"
        }
      ],
      "name": "setAmountOfTrash",
      "outputs": [],
      "stateMutability": "nonpayable",
      "type": "function"
    },
    {
      "inputs": [
        {
          "internalType": "uint256",
          "name": "trashWeight",
          "type": "uint256"
        },
        {
          "internalType": "bytes32",
          "name": "messageHash",
          "type": "bytes32"
        },
        {
          "internalType": "bytes",
          "name": "signature",
          "type": "bytes"
        },
        {
          "internalType": "uint256",
          "name": "id",
          "type": "uint256"
        }
      ],
      "name": "startWork",
      "outputs": [],
      "stateMutability": "nonpayable",
      "type": "function"
    },
    {
      "inputs": [],
      "name": "symbol",
      "outputs": [
        {
          "internalType": "string",
          "name": "",
          "type": "string"
        }
      ],
      "stateMutability": "view",
      "type": "function"
    },
    {
      "inputs": [],
      "name": "totalSupply",
      "outputs": [
        {
          "internalType": "uint256",
          "name": "",
          "type": "uint256"
        }
      ],
      "stateMutability": "view",
      "type": "function"
    },
    {
      "inputs": [
        {
          "internalType": "address",
          "name": "to",
          "type": "address"
        },
        {
          "internalType": "uint256",
          "name": "amount",
          "type": "uint256"
        }
      ],
      "name": "transfer",
      "outputs": [
        {
          "internalType": "bool",
          "name": "",
          "type": "bool"
        }
      ],
      "stateMutability": "nonpayable",
      "type": "function"
    },
    {
      "inputs": [
        {
          "internalType": "address",
          "name": "from",
          "type": "address"
        },
        {
          "internalType": "address",
          "name": "to",
          "type": "address"
        },
        {
          "internalType": "uint256",
          "name": "amount",
          "type": "uint256"
        }
      ],
      "name": "transferFrom",
      "outputs": [
        {
          "internalType": "bool",
          "name": "",
          "type": "bool"
        }
      ],
      "stateMutability": "nonpayable",
      "type": "function"
    },
    {
      "inputs": [
        {
          "internalType": "bytes32",
          "name": "messageHash",
          "type": "bytes32"
        },
        {
          "internalType": "bytes",
          "name": "signature",
          "type": "bytes"
        }
      ],
      "name": "verifySignature",
      "outputs": [
        {
          "internalType": "address",
          "name": "",
          "type": "address"
        }
      ],
      "stateMutability": "pure",
      "type": "function"
    },
    {
      "inputs": [
        {
          "internalType": "address",
          "name": "",
          "type": "address"
        }
      ],
      "name": "workerToWork",
      "outputs": [
        {
          "internalType": "uint256",
          "name": "id",
          "type": "uint256"
        },
        {
          "internalType": "uint256",
          "name": "gram",
          "type": "uint256"
        }
      ],
      "stateMutability": "view",
      "type": "function"
    }
  ],
  "bytecode": "0x60806040523480156200001157600080fd5b506040518060400160405280600c81526020017f53414c56415245546f6b656e00000000000000000000000000000000000000008152506040518060400160405280600781526020017f53414c564152450000000000000000000000000000000000000000000000000081525081600390816200008f9190620018ee565b508060049081620000a19190620018ee565b505050620000b4620000d560201b60201c565b620000cf30683635c9adc5dea00000620014fd60201b60201c565b62001af0565b600660405180610160016040528060008152602001600073ffffffffffffffffffffffffffffffffffffffff168152602001600073ffffffffffffffffffffffffffffffffffffffff16815260200160405180602001604052806000815250815260200160405180602001604052806000815250815260200160008152602001600081526020016000815260200160008152602001600081526020016040518060a001604052806000815260200160405180602001604052806000815250815260200160405180602001604052806000815250815260200160008152602001600081525081525090806001815401808255809150506001900390600052602060002090600f02016000909190919091506000820151816000015560208201518160010160006101000a81548173ffffffffffffffffffffffffffffffffffffffff021916908373ffffffffffffffffffffffffffffffffffffffff16021790555060408201518160020160006101000a81548173ffffffffffffffffffffffffffffffffffffffff021916908373ffffffffffffffffffffffffffffffffffffffff1602179055506060820151816003019081620002949190620018ee565b506080820151816004019081620002ac9190620018ee565b5060a0820151816005015560c0820151816006015560e082015181600701556101008201518160080155610120820151816009015561014082015181600a016000820151816000015560208201518160010190816200030c9190620018ee565b506040820151816002019081620003249190620018ee565b50606082015181600301556080820151816004015550505050600660405180610160016040528060018152602001735b38da6a701c568545dcfcb03fcb875f56beddc473ffffffffffffffffffffffffffffffffffffffff168152602001600073ffffffffffffffffffffffffffffffffffffffff1681526020016040518060400160405280601381526020017fe6b88be8b0b720e3838fe38381e585ace5898d000000000000000000000000008152508152602001604051806080016040528060588152602001620042f7605891398152602001660cab1b9307254681526020016631a1eac67e3ce881526020016127108152602001614e208152602001600081526020016040518060a00160405280600081526020016040518060400160405280601281526020017fe6b88be8b0b7e6b885e68e83e5b7a5e5a0b400000000000000000000000000008152508152602001604051806060016040528060368152602001620042c1603691398152602001660caaa9cf532fc881526020016631a23b2c57916381525081525090806001815401808255809150506001900390600052602060002090600f02016000909190919091506000820151816000015560208201518160010160006101000a81548173ffffffffffffffffffffffffffffffffffffffff021916908373ffffffffffffffffffffffffffffffffffffffff16021790555060408201518160020160006101000a81548173ffffffffffffffffffffffffffffffffffffffff021916908373ffffffffffffffffffffffffffffffffffffffff1602179055506060820151816003019081620005899190620018ee565b506080820151816004019081620005a19190620018ee565b5060a0820151816005015560c0820151816006015560e082015181600701556101008201518160080155610120820151816009015561014082015181600a01600082015181600001556020820151816001019081620006019190620018ee565b506040820151816002019081620006199190620018ee565b50606082015181600301556080820151816004015550505050600660405180610160016040528060028152602001735b38da6a701c568545dcfcb03fcb875f56beddc473ffffffffffffffffffffffffffffffffffffffff168152602001600073ffffffffffffffffffffffffffffffffffffffff1681526020016040518060400160405280601481526020017f536869627579612d6b75204164647265737320320000000000000000000000008152508152602001604051806080016040528060588152602001620042f7605891398152602001660cab2540edc4fc81526020016631a1fb81ace0048152602001612af88152602001614e208152602001600081526020016040518060a00160405280600081526020016040518060400160405280601281526020017fe6b88be8b0b7e6b885e68e83e5b7a5e5a0b400000000000000000000000000008152508152602001604051806060016040528060368152602001620042c1603691398152602001660caaa9cf532fc881526020016631a23b2c57916381525081525090806001815401808255809150506001900390600052602060002090600f02016000909190919091506000820151816000015560208201518160010160006101000a81548173ffffffffffffffffffffffffffffffffffffffff021916908373ffffffffffffffffffffffffffffffffffffffff16021790555060408201518160020160006101000a81548173ffffffffffffffffffffffffffffffffffffffff021916908373ffffffffffffffffffffffffffffffffffffffff16021790555060608201518160030190816200087e9190620018ee565b506080820151816004019081620008969190620018ee565b5060a0820151816005015560c0820151816006015560e082015181600701556101008201518160080155610120820151816009015561014082015181600a01600082015181600001556020820151816001019081620008f69190620018ee565b5060408201518160020190816200090e9190620018ee565b50606082015181600301556080820151816004015550505050600660405180610160016040528060038152602001735b38da6a701c568545dcfcb03fcb875f56beddc473ffffffffffffffffffffffffffffffffffffffff168152602001600073ffffffffffffffffffffffffffffffffffffffff1681526020016040518060400160405280601481526020017f536869627579612d6b75204164647265737320330000000000000000000000008152508152602001604051806080016040528060588152602001620042f7605891398152602001660cab1c1040027981526020016631a1f6c4a8dd4081526020016104b08152602001614e208152602001600081526020016040518060a00160405280600081526020016040518060400160405280601281526020017fe6b88be8b0b7e6b885e68e83e5b7a5e5a0b400000000000000000000000000008152508152602001604051806060016040528060368152602001620042c1603691398152602001660caaa9cf532fc881526020016631a23b2c57916381525081525090806001815401808255809150506001900390600052602060002090600f02016000909190919091506000820151816000015560208201518160010160006101000a81548173ffffffffffffffffffffffffffffffffffffffff021916908373ffffffffffffffffffffffffffffffffffffffff16021790555060408201518160020160006101000a81548173ffffffffffffffffffffffffffffffffffffffff021916908373ffffffffffffffffffffffffffffffffffffffff160217905550606082015181600301908162000b739190620018ee565b50608082015181600401908162000b8b9190620018ee565b5060a0820151816005015560c0820151816006015560e082015181600701556101008201518160080155610120820151816009015561014082015181600a0160008201518160000155602082015181600101908162000beb9190620018ee565b50604082015181600201908162000c039190620018ee565b50606082015181600301556080820151816004015550505050600660405180610160016040528060048152602001735b38da6a701c568545dcfcb03fcb875f56beddc473ffffffffffffffffffffffffffffffffffffffff168152602001600073ffffffffffffffffffffffffffffffffffffffff1681526020016040518060400160405280601481526020017f536869627579612d6b75204164647265737320340000000000000000000000008152508152602001604051806080016040528060588152602001620042f7605891398152602001660cab283bf50d8181526020016631a19f2f6f5e4f81526020016132c88152602001614e208152602001600081526020016040518060a00160405280600081526020016040518060400160405280601281526020017fe6b88be8b0b7e6b885e68e83e5b7a5e5a0b400000000000000000000000000008152508152602001604051806060016040528060368152602001620042c1603691398152602001660caaa9cf532fc881526020016631a23b2c57916381525081525090806001815401808255809150506001900390600052602060002090600f02016000909190919091506000820151816000015560208201518160010160006101000a81548173ffffffffffffffffffffffffffffffffffffffff021916908373ffffffffffffffffffffffffffffffffffffffff16021790555060408201518160020160006101000a81548173ffffffffffffffffffffffffffffffffffffffff021916908373ffffffffffffffffffffffffffffffffffffffff160217905550606082015181600301908162000e689190620018ee565b50608082015181600401908162000e809190620018ee565b5060a0820151816005015560c0820151816006015560e082015181600701556101008201518160080155610120820151816009015561014082015181600a0160008201518160000155602082015181600101908162000ee09190620018ee565b50604082015181600201908162000ef89190620018ee565b50606082015181600301556080820151816004015550505050600660405180610160016040528060058152602001735b38da6a701c568545dcfcb03fcb875f56beddc473ffffffffffffffffffffffffffffffffffffffff168152602001600073ffffffffffffffffffffffffffffffffffffffff1681526020016040518060400160405280601481526020017f536869627579612d6b75204164647265737320350000000000000000000000008152508152602001604051806080016040528060588152602001620042f7605891398152602001660cab0d887350cd81526020016631a19ff3152d3881526020016136b08152602001614e208152602001600081526020016040518060a00160405280600081526020016040518060400160405280601281526020017fe6b88be8b0b7e6b885e68e83e5b7a5e5a0b400000000000000000000000000008152508152602001604051806060016040528060368152602001620042c1603691398152602001660caaa9cf532fc881526020016631a23b2c57916381525081525090806001815401808255809150506001900390600052602060002090600f02016000909190919091506000820151816000015560208201518160010160006101000a81548173ffffffffffffffffffffffffffffffffffffffff021916908373ffffffffffffffffffffffffffffffffffffffff16021790555060408201518160020160006101000a81548173ffffffffffffffffffffffffffffffffffffffff021916908373ffffffffffffffffffffffffffffffffffffffff16021790555060608201518160030190816200115d9190620018ee565b506080820151816004019081620011759190620018ee565b5060a0820151816005015560c0820151816006015560e082015181600701556101008201518160080155610120820151816009015561014082015181600a01600082015181600001556020820151816001019081620011d59190620018ee565b506040820151816002019081620011ed9190620018ee565b50606082015181600301556080820151816004015550505050600660405180610160016040528060068152602001735b38da6a701c568545dcfcb03fcb875f56beddc473ffffffffffffffffffffffffffffffffffffffff168152602001600073ffffffffffffffffffffffffffffffffffffffff1681526020016040518060400160405280601481526020017f536869627579612d6b75204164647265737320360000000000000000000000008152508152602001604051806080016040528060588152602001620042f7605891398152602001660cab133e9e3c6381526020016631a1ccd59441c88152602001613a988152602001614e208152602001600081526020016040518060a00160405280600081526020016040518060400160405280601281526020017fe6b88be8b0b7e6b885e68e83e5b7a5e5a0b400000000000000000000000000008152508152602001604051806060016040528060368152602001620042c1603691398152602001660caaa9cf532fc881526020016631a23b2c57916381525081525090806001815401808255809150506001900390600052602060002090600f02016000909190919091506000820151816000015560208201518160010160006101000a81548173ffffffffffffffffffffffffffffffffffffffff021916908373ffffffffffffffffffffffffffffffffffffffff16021790555060408201518160020160006101000a81548173ffffffffffffffffffffffffffffffffffffffff021916908373ffffffffffffffffffffffffffffffffffffffff1602179055506060820151816003019081620014529190620018ee565b5060808201518160040190816200146a9190620018ee565b5060a0820151816005015560c0820151816006015560e082015181600701556101008201518160080155610120820151816009015561014082015181600a01600082015181600001556020820151816001019081620014ca9190620018ee565b506040820151816002019081620014e29190620018ee565b50606082015181600301556080820151816004015550505050565b600073ffffffffffffffffffffffffffffffffffffffff168273ffffffffffffffffffffffffffffffffffffffff16036200156f576040517f08c379a0000000000000000000000000000000000000000000000000000000008152600401620015669062001a36565b60405180910390fd5b62001583600083836200166a60201b60201c565b806002600082825462001597919062001a87565b92505081905550806000808473ffffffffffffffffffffffffffffffffffffffff1673ffffffffffffffffffffffffffffffffffffffff168152602001908152602001600020600082825401925050819055508173ffffffffffffffffffffffffffffffffffffffff16600073ffffffffffffffffffffffffffffffffffffffff167fddf252ad1be2c89b69c2b068fc378daa952ba7f163c4a11628f55a4df523b3ef836040516200164a919062001ad3565b60405180910390a362001666600083836200166f60201b60201c565b5050565b505050565b505050565b600081519050919050565b7f4e487b7100000000000000000000000000000000000000000000000000000000600052604160045260246000fd5b7f4e487b7100000000000000000000000000000000000000000000000000000000600052602260045260246000fd5b60006002820490506001821680620016f657607f821691505b6020821081036200170c576200170b620016ae565b5b50919050565b60008190508160005260206000209050919050565b60006020601f8301049050919050565b600082821b905092915050565b600060088302620017767fffffffffffffffffffffffffffffffffffffffffffffffffffffffffffffffff8262001737565b62001782868362001737565b95508019841693508086168417925050509392505050565b6000819050919050565b6000819050919050565b6000620017cf620017c9620017c3846200179a565b620017a4565b6200179a565b9050919050565b6000819050919050565b620017eb83620017ae565b62001803620017fa82620017d6565b84845462001744565b825550505050565b600090565b6200181a6200180b565b62001827818484620017e0565b505050565b5b818110156200184f576200184360008262001810565b6001810190506200182d565b5050565b601f8211156200189e57620018688162001712565b620018738462001727565b8101602085101562001883578190505b6200189b620018928562001727565b8301826200182c565b50505b505050565b600082821c905092915050565b6000620018c360001984600802620018a3565b1980831691505092915050565b6000620018de8383620018b0565b9150826002028217905092915050565b620018f98262001674565b67ffffffffffffffff8111156200191557620019146200167f565b5b620019218254620016dd565b6200192e82828562001853565b600060209050601f83116001811462001966576000841562001951578287015190505b6200195d8582620018d0565b865550620019cd565b601f198416620019768662001712565b60005b82811015620019a05784890151825560018201915060208501945060208101905062001979565b86831015620019c05784890151620019bc601f891682620018b0565b8355505b6001600288020188555050505b505050505050565b600082825260208201905092915050565b7f45524332303a206d696e7420746f20746865207a65726f206164647265737300600082015250565b600062001a1e601f83620019d5565b915062001a2b82620019e6565b602082019050919050565b6000602082019050818103600083015262001a518162001a0f565b9050919050565b7f4e487b7100000000000000000000000000000000000000000000000000000000600052601160045260246000fd5b600062001a94826200179a565b915062001aa1836200179a565b925082820190508082111562001abc5762001abb62001a58565b5b92915050565b62001acd816200179a565b82525050565b600060208201905062001aea600083018462001ac2565b92915050565b6127c18062001b006000396000f3fe608060405234801561001057600080fd5b506004361061012c5760003560e01c806370a08231116100ad578063a457c2d711610071578063a457c2d71461036c578063a9059cbb1461039c578063d851ba9e146103cc578063daca6f78146103fc578063dd62ed3e1461042c5761012c565b806370a082311461028d578063760fe9be146102bd57806378350073146102ee5780638b283a1a1461031e57806395d89b411461034e5761012c565b806323b872dd116100f457806323b872dd146101d7578063313ce5671461020757806337d7948d1461022557806339509351146102415780635e0f6fb8146102715761012c565b806306fdde0314610131578063095ea7b31461014f578063107bd86c1461017f57806318160ddd1461019b5780631ece8337146101b9575b600080fd5b61013961045c565b6040516101469190611741565b60405180910390f35b6101696004803603810190610164919061180b565b6104ee565b6040516101769190611866565b60405180910390f35b61019960048036038101906101949190611881565b610511565b005b6101a361053f565b6040516101b091906118d0565b60405180910390f35b6101c1610549565b6040516101ce9190611b8f565b60405180910390f35b6101f160048036038101906101ec9190611bb1565b61090b565b6040516101fe9190611866565b60405180910390f35b61020f61093a565b60405161021c9190611c20565b60405180910390f35b61023f600480360381019061023a9190611da6565b610943565b005b61025b6004803603810190610256919061180b565b610a2a565b6040516102689190611866565b60405180910390f35b61028b60048036038101906102869190611e29565b610a61565b005b6102a760048036038101906102a29190611e98565b610b97565b6040516102b491906118d0565b60405180910390f35b6102d760048036038101906102d29190611e98565b610bdf565b6040516102e5929190611ec5565b60405180910390f35b61030860048036038101906103039190611e98565b610c03565b6040516103159190611f1d565b60405180910390f35b61033860048036038101906103339190611e98565b610c70565b60405161034591906118d0565b60405180910390f35b610356610c88565b6040516103639190611741565b60405180910390f35b6103866004803603810190610381919061180b565b610d1a565b6040516103939190611866565b60405180910390f35b6103b660048036038101906103b1919061180b565b610d91565b6040516103c39190611866565b60405180910390f35b6103e660048036038101906103e19190611e98565b610db4565b6040516103f39190611f1d565b60405180910390f35b61041660048036038101906104119190611f38565b610e21565b6040516104239190611fa3565b60405180910390f35b61044660048036038101906104419190611fbe565b610e3d565b60405161045391906118d0565b60405180910390f35b60606003805461046b9061202d565b80601f01602080910402602001604051908101604052809291908181526020018280546104979061202d565b80156104e45780601f106104b9576101008083540402835291602001916104e4565b820191906000526020600020905b8154815290600101906020018083116104c757829003601f168201915b5050505050905090565b6000806104f9610ec4565b9050610506818585610ecc565b600191505092915050565b81600682815481106105265761052561205e565b5b90600052602060002090600f0201600701819055505050565b6000600254905090565b60606006805480602002602001604051908101604052809291908181526020016000905b8282101561090257838290600052602060002090600f020160405180610160016040529081600082015481526020016001820160009054906101000a900473ffffffffffffffffffffffffffffffffffffffff1673ffffffffffffffffffffffffffffffffffffffff1673ffffffffffffffffffffffffffffffffffffffff1681526020016002820160009054906101000a900473ffffffffffffffffffffffffffffffffffffffff1673ffffffffffffffffffffffffffffffffffffffff1673ffffffffffffffffffffffffffffffffffffffff1681526020016003820180546106579061202d565b80601f01602080910402602001604051908101604052809291908181526020018280546106839061202d565b80156106d05780601f106106a5576101008083540402835291602001916106d0565b820191906000526020600020905b8154815290600101906020018083116106b357829003601f168201915b505050505081526020016004820180546106e99061202d565b80601f01602080910402602001604051908101604052809291908181526020018280546107159061202d565b80156107625780601f1061073757610100808354040283529160200191610762565b820191906000526020600020905b81548152906001019060200180831161074557829003601f168201915b505050505081526020016005820154815260200160068201548152602001600782015481526020016008820154815260200160098201548152602001600a82016040518060a0016040529081600082015481526020016001820180546107c79061202d565b80601f01602080910402602001604051908101604052809291908181526020018280546107f39061202d565b80156108405780601f1061081557610100808354040283529160200191610840565b820191906000526020600020905b81548152906001019060200180831161082357829003601f168201915b505050505081526020016002820180546108599061202d565b80601f01602080910402602001604051908101604052809291908181526020018280546108859061202d565b80156108d25780601f106108a7576101008083540402835291602001916108d2565b820191906000526020600020905b8154815290600101906020018083116108b557829003601f168201915b5050505050815260200160038201548152602001600482015481525050815250508152602001906001019061056d565b50505050905090565b600080610916610ec4565b9050610923858285611095565b61092e858585611121565b60019150509392505050565b60006012905090565b600061094f8484610e21565b905084600760008373ffffffffffffffffffffffffffffffffffffffff1673ffffffffffffffffffffffffffffffffffffffff1681526020019081526020016000206001018190555081600760008373ffffffffffffffffffffffffffffffffffffffff1673ffffffffffffffffffffffffffffffffffffffff16815260200190815260200160002060000181905550818173ffffffffffffffffffffffffffffffffffffffff167f8fc01ae8a764e12128400c3f6f8d147880b3e60e4855fa8f7c3dff63dd0efdd060405160405180910390a35050505050565b600080610a35610ec4565b9050610a56818585610a478589610e3d565b610a5191906120bc565b610ecc565b600191505092915050565b6000610a6d8383610e21565b90506000600760008373ffffffffffffffffffffffffffffffffffffffff1673ffffffffffffffffffffffffffffffffffffffff16815260200190815260200160002060010154905084600a82610ac4919061211f565b82610acf9190612150565b1015610b0057610afe82670de0b6b3a7640000600188610aef9190612184565b610af99190612184565b610d91565b505b6000600760008473ffffffffffffffffffffffffffffffffffffffff1673ffffffffffffffffffffffffffffffffffffffff168152602001908152602001600020600101819055506000600760008473ffffffffffffffffffffffffffffffffffffffff1673ffffffffffffffffffffffffffffffffffffffff168152602001908152602001600020600001819055505050505050565b60008060008373ffffffffffffffffffffffffffffffffffffffff1673ffffffffffffffffffffffffffffffffffffffff168152602001908152602001600020549050919050565b60076020528060005260406000206000915090508060000154908060010154905082565b610c0b611697565b600760008373ffffffffffffffffffffffffffffffffffffffff1673ffffffffffffffffffffffffffffffffffffffff168152602001908152602001600020604051806040016040529081600082015481526020016001820154815250509050919050565b60056020528060005260406000206000915090505481565b606060048054610c979061202d565b80601f0160208091040260200160405190810160405280929190818152602001828054610cc39061202d565b8015610d105780601f10610ce557610100808354040283529160200191610d10565b820191906000526020600020905b815481529060010190602001808311610cf357829003601f168201915b5050505050905090565b600080610d25610ec4565b90506000610d338286610e3d565b905083811015610d78576040517f08c379a0000000000000000000000000000000000000000000000000000000008152600401610d6f90612238565b60405180910390fd5b610d858286868403610ecc565b60019250505092915050565b600080610d9c610ec4565b9050610da9818585611121565b600191505092915050565b610dbc611697565b600760008373ffffffffffffffffffffffffffffffffffffffff1673ffffffffffffffffffffffffffffffffffffffff168152602001908152602001600020604051806040016040529081600082015481526020016001820154815250509050919050565b6000610e35610e2f84611397565b836113cd565b905092915050565b6000600160008473ffffffffffffffffffffffffffffffffffffffff1673ffffffffffffffffffffffffffffffffffffffff16815260200190815260200160002060008373ffffffffffffffffffffffffffffffffffffffff1673ffffffffffffffffffffffffffffffffffffffff16815260200190815260200160002054905092915050565b600033905090565b600073ffffffffffffffffffffffffffffffffffffffff168373ffffffffffffffffffffffffffffffffffffffff1603610f3b576040517f08c379a0000000000000000000000000000000000000000000000000000000008152600401610f32906122ca565b60405180910390fd5b600073ffffffffffffffffffffffffffffffffffffffff168273ffffffffffffffffffffffffffffffffffffffff1603610faa576040517f08c379a0000000000000000000000000000000000000000000000000000000008152600401610fa19061235c565b60405180910390fd5b80600160008573ffffffffffffffffffffffffffffffffffffffff1673ffffffffffffffffffffffffffffffffffffffff16815260200190815260200160002060008473ffffffffffffffffffffffffffffffffffffffff1673ffffffffffffffffffffffffffffffffffffffff168152602001908152602001600020819055508173ffffffffffffffffffffffffffffffffffffffff168373ffffffffffffffffffffffffffffffffffffffff167f8c5be1e5ebec7d5bd14f71427d1e84f3dd0314c0f7b2291e5b200ac8c7c3b9258360405161108891906118d0565b60405180910390a3505050565b60006110a18484610e3d565b90507fffffffffffffffffffffffffffffffffffffffffffffffffffffffffffffffff811461111b578181101561110d576040517f08c379a0000000000000000000000000000000000000000000000000000000008152600401611104906123c8565b60405180910390fd5b61111a8484848403610ecc565b5b50505050565b600073ffffffffffffffffffffffffffffffffffffffff168373ffffffffffffffffffffffffffffffffffffffff1603611190576040517f08c379a00000000000000000000000000000000000000000000000000000000081526004016111879061245a565b60405180910390fd5b600073ffffffffffffffffffffffffffffffffffffffff168273ffffffffffffffffffffffffffffffffffffffff16036111ff576040517f08c379a00000000000000000000000000000000000000000000000000000000081526004016111f6906124ec565b60405180910390fd5b61120a8383836113f4565b60008060008573ffffffffffffffffffffffffffffffffffffffff1673ffffffffffffffffffffffffffffffffffffffff16815260200190815260200160002054905081811015611290576040517f08c379a00000000000000000000000000000000000000000000000000000000081526004016112879061257e565b60405180910390fd5b8181036000808673ffffffffffffffffffffffffffffffffffffffff1673ffffffffffffffffffffffffffffffffffffffff16815260200190815260200160002081905550816000808573ffffffffffffffffffffffffffffffffffffffff1673ffffffffffffffffffffffffffffffffffffffff168152602001908152602001600020600082825401925050819055508273ffffffffffffffffffffffffffffffffffffffff168473ffffffffffffffffffffffffffffffffffffffff167fddf252ad1be2c89b69c2b068fc378daa952ba7f163c4a11628f55a4df523b3ef8460405161137e91906118d0565b60405180910390a36113918484846113f9565b50505050565b60007f19457468657265756d205369676e6564204d6573736167653a0a33320000000060005281601c52603c6000209050919050565b60008060006113dc85856113fe565b915091506113e98161144f565b819250505092915050565b505050565b505050565b600080604183510361143f5760008060006020860151925060408601519150606086015160001a9050611433878285856115b5565b94509450505050611448565b60006002915091505b9250929050565b600060048111156114635761146261259e565b5b8160048111156114765761147561259e565b5b03156115b257600160048111156114905761148f61259e565b5b8160048111156114a3576114a261259e565b5b036114e3576040517f08c379a00000000000000000000000000000000000000000000000000000000081526004016114da90612619565b60405180910390fd5b600260048111156114f7576114f661259e565b5b81600481111561150a5761150961259e565b5b0361154a576040517f08c379a000000000000000000000000000000000000000000000000000000000815260040161154190612685565b60405180910390fd5b6003600481111561155e5761155d61259e565b5b8160048111156115715761157061259e565b5b036115b1576040517f08c379a00000000000000000000000000000000000000000000000000000000081526004016115a890612717565b60405180910390fd5b5b50565b6000807f7fffffffffffffffffffffffffffffff5d576e7357a4501ddfe92f46681b20a08360001c11156115f057600060039150915061168e565b6000600187878787604051600081526020016040526040516116159493929190612746565b6020604051602081039080840390855afa158015611637573d6000803e3d6000fd5b505050602060405103519050600073ffffffffffffffffffffffffffffffffffffffff168173ffffffffffffffffffffffffffffffffffffffff16036116855760006001925092505061168e565b80600092509250505b94509492505050565b604051806040016040528060008152602001600081525090565b600081519050919050565b600082825260208201905092915050565b60005b838110156116eb5780820151818401526020810190506116d0565b60008484015250505050565b6000601f19601f8301169050919050565b6000611713826116b1565b61171d81856116bc565b935061172d8185602086016116cd565b611736816116f7565b840191505092915050565b6000602082019050818103600083015261175b8184611708565b905092915050565b6000604051905090565b600080fd5b600080fd5b600073ffffffffffffffffffffffffffffffffffffffff82169050919050565b60006117a282611777565b9050919050565b6117b281611797565b81146117bd57600080fd5b50565b6000813590506117cf816117a9565b92915050565b6000819050919050565b6117e8816117d5565b81146117f357600080fd5b50565b600081359050611805816117df565b92915050565b600080604083850312156118225761182161176d565b5b6000611830858286016117c0565b9250506020611841858286016117f6565b9150509250929050565b60008115159050919050565b6118608161184b565b82525050565b600060208201905061187b6000830184611857565b92915050565b600080604083850312156118985761189761176d565b5b60006118a6858286016117f6565b92505060206118b7858286016117f6565b9150509250929050565b6118ca816117d5565b82525050565b60006020820190506118e560008301846118c1565b92915050565b600081519050919050565b600082825260208201905092915050565b6000819050602082019050919050565b611920816117d5565b82525050565b61192f81611797565b82525050565b600082825260208201905092915050565b6000611951826116b1565b61195b8185611935565b935061196b8185602086016116cd565b611974816116f7565b840191505092915050565b600060a0830160008301516119976000860182611917565b50602083015184820360208601526119af8282611946565b915050604083015184820360408601526119c98282611946565b91505060608301516119de6060860182611917565b5060808301516119f16080860182611917565b508091505092915050565b600061016083016000830151611a156000860182611917565b506020830151611a286020860182611926565b506040830151611a3b6040860182611926565b5060608301518482036060860152611a538282611946565b91505060808301518482036080860152611a6d8282611946565b91505060a0830151611a8260a0860182611917565b5060c0830151611a9560c0860182611917565b5060e0830151611aa860e0860182611917565b50610100830151611abd610100860182611917565b50610120830151611ad2610120860182611917565b50610140830151848203610140860152611aec828261197f565b9150508091505092915050565b6000611b0583836119fc565b905092915050565b6000602082019050919050565b6000611b25826118eb565b611b2f81856118f6565b935083602082028501611b4185611907565b8060005b85811015611b7d5784840389528151611b5e8582611af9565b9450611b6983611b0d565b925060208a01995050600181019050611b45565b50829750879550505050505092915050565b60006020820190508181036000830152611ba98184611b1a565b905092915050565b600080600060608486031215611bca57611bc961176d565b5b6000611bd8868287016117c0565b9350506020611be9868287016117c0565b9250506040611bfa868287016117f6565b9150509250925092565b600060ff82169050919050565b611c1a81611c04565b82525050565b6000602082019050611c356000830184611c11565b92915050565b6000819050919050565b611c4e81611c3b565b8114611c5957600080fd5b50565b600081359050611c6b81611c45565b92915050565b600080fd5b600080fd5b7f4e487b7100000000000000000000000000000000000000000000000000000000600052604160045260246000fd5b611cb3826116f7565b810181811067ffffffffffffffff82111715611cd257611cd1611c7b565b5b80604052505050565b6000611ce5611763565b9050611cf18282611caa565b919050565b600067ffffffffffffffff821115611d1157611d10611c7b565b5b611d1a826116f7565b9050602081019050919050565b82818337600083830152505050565b6000611d49611d4484611cf6565b611cdb565b905082815260208101848484011115611d6557611d64611c76565b5b611d70848285611d27565b509392505050565b600082601f830112611d8d57611d8c611c71565b5b8135611d9d848260208601611d36565b91505092915050565b60008060008060808587031215611dc057611dbf61176d565b5b6000611dce878288016117f6565b9450506020611ddf87828801611c5c565b935050604085013567ffffffffffffffff811115611e0057611dff611772565b5b611e0c87828801611d78565b9250506060611e1d878288016117f6565b91505092959194509250565b600080600060608486031215611e4257611e4161176d565b5b6000611e50868287016117f6565b9350506020611e6186828701611c5c565b925050604084013567ffffffffffffffff811115611e8257611e81611772565b5b611e8e86828701611d78565b9150509250925092565b600060208284031215611eae57611ead61176d565b5b6000611ebc848285016117c0565b91505092915050565b6000604082019050611eda60008301856118c1565b611ee760208301846118c1565b9392505050565b604082016000820151611f046000850182611917565b506020820151611f176020850182611917565b50505050565b6000604082019050611f326000830184611eee565b92915050565b60008060408385031215611f4f57611f4e61176d565b5b6000611f5d85828601611c5c565b925050602083013567ffffffffffffffff811115611f7e57611f7d611772565b5b611f8a85828601611d78565b9150509250929050565b611f9d81611797565b82525050565b6000602082019050611fb86000830184611f94565b92915050565b60008060408385031215611fd557611fd461176d565b5b6000611fe3858286016117c0565b9250506020611ff4858286016117c0565b9150509250929050565b7f4e487b7100000000000000000000000000000000000000000000000000000000600052602260045260246000fd5b6000600282049050600182168061204557607f821691505b60208210810361205857612057611ffe565b5b50919050565b7f4e487b7100000000000000000000000000000000000000000000000000000000600052603260045260246000fd5b7f4e487b7100000000000000000000000000000000000000000000000000000000600052601160045260246000fd5b60006120c7826117d5565b91506120d2836117d5565b92508282019050808211156120ea576120e961208d565b5b92915050565b7f4e487b7100000000000000000000000000000000000000000000000000000000600052601260045260246000fd5b600061212a826117d5565b9150612135836117d5565b925082612145576121446120f0565b5b828204905092915050565b600061215b826117d5565b9150612166836117d5565b925082820390508181111561217e5761217d61208d565b5b92915050565b600061218f826117d5565b915061219a836117d5565b92508282026121a8816117d5565b915082820484148315176121bf576121be61208d565b5b5092915050565b7f45524332303a2064656372656173656420616c6c6f77616e63652062656c6f7760008201527f207a65726f000000000000000000000000000000000000000000000000000000602082015250565b60006122226025836116bc565b915061222d826121c6565b604082019050919050565b6000602082019050818103600083015261225181612215565b9050919050565b7f45524332303a20617070726f76652066726f6d20746865207a65726f2061646460008201527f7265737300000000000000000000000000000000000000000000000000000000602082015250565b60006122b46024836116bc565b91506122bf82612258565b604082019050919050565b600060208201905081810360008301526122e3816122a7565b9050919050565b7f45524332303a20617070726f766520746f20746865207a65726f20616464726560008201527f7373000000000000000000000000000000000000000000000000000000000000602082015250565b60006123466022836116bc565b9150612351826122ea565b604082019050919050565b6000602082019050818103600083015261237581612339565b9050919050565b7f45524332303a20696e73756666696369656e7420616c6c6f77616e6365000000600082015250565b60006123b2601d836116bc565b91506123bd8261237c565b602082019050919050565b600060208201905081810360008301526123e1816123a5565b9050919050565b7f45524332303a207472616e736665722066726f6d20746865207a65726f20616460008201527f6472657373000000000000000000000000000000000000000000000000000000602082015250565b60006124446025836116bc565b915061244f826123e8565b604082019050919050565b6000602082019050818103600083015261247381612437565b9050919050565b7f45524332303a207472616e7366657220746f20746865207a65726f206164647260008201527f6573730000000000000000000000000000000000000000000000000000000000602082015250565b60006124d66023836116bc565b91506124e18261247a565b604082019050919050565b60006020820190508181036000830152612505816124c9565b9050919050565b7f45524332303a207472616e7366657220616d6f756e742065786365656473206260008201527f616c616e63650000000000000000000000000000000000000000000000000000602082015250565b60006125686026836116bc565b91506125738261250c565b604082019050919050565b600060208201905081810360008301526125978161255b565b9050919050565b7f4e487b7100000000000000000000000000000000000000000000000000000000600052602160045260246000fd5b7f45434453413a20696e76616c6964207369676e61747572650000000000000000600082015250565b60006126036018836116bc565b915061260e826125cd565b602082019050919050565b60006020820190508181036000830152612632816125f6565b9050919050565b7f45434453413a20696e76616c6964207369676e6174757265206c656e67746800600082015250565b600061266f601f836116bc565b915061267a82612639565b602082019050919050565b6000602082019050818103600083015261269e81612662565b9050919050565b7f45434453413a20696e76616c6964207369676e6174757265202773272076616c60008201527f7565000000000000000000000000000000000000000000000000000000000000602082015250565b60006127016022836116bc565b915061270c826126a5565b604082019050919050565b60006020820190508181036000830152612730816126f4565b9050919050565b61274081611c3b565b82525050565b600060808201905061275b6000830187612737565b6127686020830186611c11565b6127756040830185612737565b6127826060830184612737565b9594505050505056fea2646970667358221220df7fbed1df890d5eb5bee95d7b28f093c006e3e24edc2ae130db91d87d20bd1464736f6c63430008120033e380923135302d3030313120e69db1e4baace983bde6b88be8b0b7e58cbae69db1efbc91e4b881e79baeefbc93efbc95e28892efbc9168747470733a2f2f63646e2e646973636f72646170702e636f6d2f6174746163686d656e74732f313038373335343834353637353132363738362f313131353634353633393035333830373733382f696d6167652e706e67",
  "linkReferences": {},
  "deployedLinkReferences": {}
}